:020000040800F2
:10000000005000207139000875340008773400086A
:10001000793400087B3400087D34000800000000BB
:100020000000000000000000000000007F34000815
:100030008134000800000000833400088534000883
:10004000B9390008B9390008B9390008B9390008C8
:10005000B9390008B9390008B9390008B9390008B8
:10006000B9390008B9390008B9390008B9390008A8
:10007000B9390008B9390008B9390008B939000898
:10008000B9390008B9390008B9390008B939000888
:10009000B9390008B9390008B9390008B939000878
:1000A000B9390008B9390008B9390008B939000868
:1000B000B93900088D340008B9390008B939000889
:1000C000B9390008B9390008B9390008B939000848
:1000D000B93900089D340008B9390008B939000859
:1000E000B9390008B9390008B93900080000000022
:1000F0000000000000000000000000000000000000
:0C01000000000000000000005FF808F1A3
:1001100010B5054C237833B9044B13B10448AFF341
:1001200000800123237010BDBC09002000000000E6
:1001300000B8000808B5034B1BB103490348AFF3EF
:10014000008008BD00000000C009002000B80008C1
:1001500081F0004102E000BF83F0004330B54FEA78
:1001600041044FEA430594EA050F08BF90EA020FE5
:100170001FBF54EA000C55EA020C7FEA645C7FEA78
:10018000655C00F0E2804FEA5454D4EB5555B8BF9B
:100190006D420CDD2C4480EA020281EA030382EA0C
:1001A000000083EA010180EA020281EA0303362D9E
:1001B00088BF30BD11F0004F4FEA01314FF4801C71
:1001C0004CEA113102D0404261EB410113F0004F83
:1001D0004FEA03334CEA133302D0524263EB43033A
:1001E00094EA050F00F0A780A4F10104D5F1200ED8
:1001F0000DDB02FA0EFC22FA05F2801841F1000133
:1002000003FA0EF2801843FA05F359410EE0A5F106
:1002100020050EF1200E012A03FA0EFC28BF4CF037
:10022000020C43FA05F3C01851EBE37101F00045ED
:1002300007D54FF0000EDCF1000C7EEB00006EEBFA
:100240000101B1F5801F1BD3B1F5001F0CD3490884
:100250005FEA30004FEA3C0C04F101044FEA4452DB
:1002600012F5800F80F09A80BCF1004F08BF5FEA62
:10027000500C50F1000041EB045141EA050130BD42
:100280005FEA4C0C404141EB0101013C28BFB1F554
:10029000801FE9D291F0000F04BF01460020B1FA9F
:1002A00081F308BF2033A3F10B03B3F120020CDA72
:1002B0000C3208DD02F1140CC2F10C0201FA0CF050
:1002C00021FA02F10CE002F11402D8BFC2F1200CB5
:1002D00001FA02F120FA0CFCDCBF41EA0C0190406B
:1002E000E41AA2BF01EB0451294330BD6FEA0404B4
:1002F0001F3C1CDA0C340EDC04F11404C4F120029F
:1003000020FA04F001FA02F340EA030021FA04F3B0
:1003100045EA030130BDC4F10C04C4F1200220FA07
:1003200002F001FA04F340EA0300294630BD21FA45
:1003300004F0294630BD94F0000F83F4801306BF0B
:1003400081F480110134013D4EE77FEA645C18BFFF
:100350007FEA655C29D094EA050F08BF90EA020F96
:1003600005D054EA000C04BF1946104630BD91EA8E
:10037000030F1EBF0021002030BD5FEA545C05D191
:100380004000494128BF41F0004130BD14F58004D0
:100390003CBF01F5801130BD01F0004545F0FE4144
:1003A00041F470014FF0000030BD7FEA645C1ABF79
:1003B000194610467FEA655C1CBF0B46024650EAB0
:1003C000013406BF52EA033591EA030F41F40021DC
:1003D00030BD00BF90F0000F04BF0021704730B562
:1003E0004FF4806404F132044FF000054FF0000137
:1003F00050E700BF90F0000F04BF0021704730B5F8
:100400004FF4806404F1320410F0004548BF4042CC
:100410004FF000013EE700BF42004FEAE2014FEA21
:1004200031014FEA02701FBF12F07F4393F07F4FFC
:1004300081F06051704732F07F4208BF704793F0FF
:100440007F4F04BF41F40021704730B54FF4607412
:1004500001F0004521F000411CE700BF50EA010215
:1004600008BF704730B54FF000050AE050EA0102BE
:1004700008BF704730B511F0004502D5404261EB2E
:1004800041014FF4806404F132045FEA915C3FF46F
:10049000D8AE4FF003025FEADC0C18BF03325FEA0C
:1004A000DC0C18BF033202EBDC02C2F1200300FABD
:1004B00003FC20FA02F001FA03FE40EA0E0021FAE2
:1004C00002F11444BDE600BF4FEA410212F50012EA
:1004D00015D211D56FF47873B3EB625212D94FEA8B
:1004E000C12343F0004343EA505311F0004F23FA75
:1004F00002F018BF404270474FF00000704750EACA
:10050000013005D111F0004008BF6FF00040704786
:100510004FF00000704700BF80F0004002E000BFD5
:1005200081F0004142001FBF5FEA410392EA030FDE
:100530007FEA226C7FEA236C6AD04FEA1262D2EB28
:100540001363C1BFD218414048404140B8BF5B422D
:10055000192B88BF704710F0004F40F4000020F0C6
:100560007F4018BF404211F0004F41F4000121F0DC
:100570007F4118BF494292EA030F3FD0A2F1010226
:1005800041FA03FC10EB0C00C3F1200301FA03F164
:1005900000F0004302D5494260EB4000B0F5000F87
:1005A00013D3B0F1807F06D340084FEA310102F146
:1005B0000102FE2A51D2B1F1004F40EBC25008BFF8
:1005C00020F0010040EA03007047490040EB0000C2
:1005D000013A28BFB0F5000FEDD2B0FA80FCACF1C3
:1005E000080CB2EB0C0200FA0CF0AABF00EBC250F0
:1005F00052421843BCBFD0401843704792F0000FDE
:1006000081F4000106BF80F400000132013BB5E730
:100610004FEA41037FEA226C18BF7FEA236C21D0A6
:1006200092EA030F04D092F0000F08BF084670470B
:1006300090EA010F1CBF0020704712F07F4F04D1D9
:10064000400028BF40F00040704712F100723CBFEC
:1006500000F50000704700F0004343F0FE4040F416
:10066000000070477FEA226216BF08467FEA2363D4
:100670000146420206BF5FEA412390EA010F40F4BF
:10068000800070474FF0000304E000BF10F000430B
:1006900048BF40425FEA000C08BF704743F09643F2
:1006A00001464FF000001CE050EA010208BF70470D
:1006B0004FF000030AE000BF50EA010208BF704794
:1006C00011F0004302D5404261EB41015FEA010CA9
:1006D00002BF84460146002043F0B64308BFA3F1A1
:1006E0008053A3F50003BCFA8CF2083AA3EBC25383
:1006F00010DB01FA02FC634400FA02FCC2F12002A2
:10070000BCF1004F20FA02F243EB020008BF20F0D8
:100710000100704702F1200201FA02FCC2F120023E
:1007200050EA4C0021FA02F243EB020008BF20EA33
:10073000DC7070474FF0FF0C1CEAD0521EBF1CEA61
:10074000D15392EA0C0F93EA0C0F6FD01A4480EA4F
:10075000010C400218BF5FEA41211ED04FF0006338
:1007600043EA501043EA5111A0FB01310CF0004064
:10077000B1F5000F3EBF490041EAD3715B0040EA8A
:10078000010062F17F02FD2A1DD8B3F1004F40EB5A
:10079000C25008BF20F00100704790F0000F0CF02D
:1007A000004C08BF49024CEA502040EA51207F3AF1
:1007B000C2BFD2F1FF0340EAC250704740F40000CC
:1007C0004FF00003013A5DDC12F1190FDCBF00F0BD
:1007D00000407047C2F10002410021FA02F1C2F16B
:1007E000200200FA02FC5FEA310040F1000053EA07
:1007F0004C0308BF20EADC70704792F0000F00F055
:10080000004C02BF400010F4000F013AF9D040EA5A
:100810000C0093F0000F01F0004C02BF490011F4EE
:10082000000F013BF9D041EA0C018FE70CEAD153EC
:1008300092EA0C0F18BF93EA0C0F0AD030F0004C6C
:1008400018BF31F0004CD8D180EA010000F0004020
:10085000704790F0000F17BF90F0004F084691F0DE
:10086000000F91F0004F14D092EA0C0F01D1420218
:100870000FD193EA0C0F03D14B0218BF084608D1E1
:1008800080EA010000F0004040F0FE4040F400002B
:10089000704740F0FE4040F4400070474FF0FF0CBE
:1008A0001CEAD0521EBF1CEAD15392EA0C0F93EA05
:1008B0000C0F69D0A2EB030280EA010C49024FEA57
:1008C000402037D04FF0805343EA111143EA101310
:1008D0000CF000408B4238BF5B0042F17D024FF4C8
:1008E000000C8B4224BF5B1A40EA0C00B3EB510FA3
:1008F00024BFA3EB510340EA5C00B3EB910F24BF8C
:10090000A3EB910340EA9C00B3EBD10F24BFA3EB10
:10091000D10340EADC001B0118BF5FEA1C1CE0D1D8
:10092000FD2A3FF650AF8B4240EBC25008BF20F08B
:10093000010070470CF0004C4CEA50207F32C2BFDF
:10094000D2F1FF0340EAC250704740F400004FF07C
:100950000003013A37E792F0000F00F0004C02BFAD
:10096000400010F4000F013AF9D040EA0C0093F077
:10097000000F01F0004C02BF490011F4000F013BD1
:10098000F9D041EA0C0195E70CEAD15392EA0C0F39
:1009900008D142027FF47DAF93EA0C0F7FF470AF71
:1009A000084676E793EA0C0F04D14B023FF44CAFB4
:1009B00008466EE730F0004C18BF31F0004CCAD149
:1009C00030F000427FF45CAF31F000437FF43CAF85
:1009D0005FE700BF4FF0FF3C06E000BF4FF0010CA7
:1009E00002E000BF4FF0010C4DF804CD4FEA400289
:1009F0004FEA41037FEA226C18BF7FEA236C11D0D3
:100A000001B052EA530C18BF90EA010F58BFB2EB85
:100A1000030088BFC81738BF6FEAE17018BF40F005
:100A2000010070477FEA226C02D15FEA402C05D1B9
:100A30007FEA236CE4D15FEA412CE1D05DF8040B3E
:100A4000704700BF844608466146FFE70FB5FFF7D1
:100A5000C9FF002848BF10F1000F0FBD4DF808ED89
:100A6000FFF7F4FF0CBF012000205DF808FB00BF7A
:100A70004DF808EDFFF7EAFF34BF012000205DF8D4
:100A800008FB00BF4DF808EDFFF7E0FF94BF012021
:100A900000205DF808FB00BF4DF808EDFFF7D2FF1E
:100AA00094BF012000205DF808FB00BF4DF808ED61
:100AB000FFF7C8FF34BF012000205DF808FB00BF2E
:100AC0004FEA4002B2F1FE4F0FD34FF09E03B3EB5B
:100AD00012620DD94FEA002343F0004310F0004F9B
:100AE00023FA02F018BF404270474FF000007047F1
:100AF00012F1610F01D1420205D110F0004008BF90
:100B00006FF0004070474FF000007047844641EAA4
:100B1000000313F0030349D1403A23D30B68036069
:100B20004B6843608B688360CB68C3600B6903616B
:100B30004B6943618B698361CB69C3610B6A036253
:100B40004B6A43628B6A8362CB6AC3620B6B03633B
:100B50004B6B43638B6B8363CB6BC3634030403120
:100B6000403ADBD230320BD30B6803604B684360F2
:100B70008B688360CB68C36010301031103AF3D2B9
:100B80000C3205D351F8043B40F8043B043AF9D247
:100B9000043208D0D2071CBF11F8013B00F8013B1A
:100BA00001D30B8803806046704700BF082A13D327
:100BB0008B07B1D010F00303AED0C3F10403D21AF7
:100BC000DB071CBF11F8013B00F8013BA4D331F84F
:100BD000023B20F8023B9FE7043AD9D3013A11F8CF
:100BE000013B00F8013BF9D20B7803704B7843705E
:100BF0008B7883706046704770B54FF0FF0C4CF4F3
:100C0000E06C1CEA11541DBF1CEA135594EA0C0F4A
:100C100095EA0C0F00F0DEF82C4481EA030621EA85
:100C20004C5123EA4C5350EA013518BF52EA0335C0
:100C300041F4801143F4801338D0A0FB02CE4FF072
:100C40000005E1FB02E506F00042E0FB03E54FF0A2
:100C50000006E1FB03569CF0000F18BF4EF0010E9A
:100C6000A4F1FF04B6F5007F64F5407404D25FEA96
:100C70004E0E6D4146EB060642EAC62141EA555149
:100C80004FEAC52040EA5E504FEACE2EB4F1FD0C8B
:100C900088BFBCF5E06F1ED8BEF1004F08BF5FEA09
:100CA000500E50F1000041EB045170BD06F00046BB
:100CB00046EA010140EA020081EA0301B4EB5C0468
:100CC000C2BFD4EB0C0541EA045170BD41F4801160
:100CD0004FF0000E013C00F3AB8014F1360FDEBF85
:100CE000002001F0004170BDC4F10004203C35DA61
:100CF0000C341BDC04F11404C4F1200500FA05F3E4
:100D000020FA04F001FA05F240EA020001F0004284
:100D100021F0004110EBD37021FA04F642EB0601FA
:100D20005EEA430E08BF20EAD37070BDC4F10C0424
:100D3000C4F1200500FA04F320FA05F001FA04F2E8
:100D400040EA020001F0004110EBD37041F10001D4
:100D50005EEA430E08BF20EAD37070BDC4F12005DF
:100D600000FA05F24EEA020E20FA04F301FA05F247
:100D700043EA020321FA04F001F0004121FA04F2EF
:100D800020EA020000EBD3705EEA430E08BF20EABF
:100D9000D37070BD94F0000F0FD101F000464000F9
:100DA00041EB010111F4801F08BF013CF7D041EA7B
:100DB000060195F0000F18BF704703F0004652007F
:100DC00043EB030313F4801F08BF013DF7D043EA50
:100DD0000603704794EA0C0F0CEA135518BF95EA06
:100DE0000C0F0CD050EA410618BF52EA4306D1D18D
:100DF00081EA030101F000414FF0000070BD50EAAC
:100E0000410606BF1046194652EA430619D094EA35
:100E10000C0F02D150EA013613D195EA0C0F05D11F
:100E200052EA03361CBF104619460AD181EA030173
:100E300001F0004141F0FE4141F470014FF000002B
:100E400070BD41F0FE4141F4780170BD70B54FF0C6
:100E5000FF0C4CF4E06C1CEA11541DBF1CEA135546
:100E600094EA0C0F95EA0C0F00F0A7F8A4EB050428
:100E700081EA030E52EA03354FEA013100F088801F
:100E80004FEA03334FF0805545EA131343EA1263E8
:100E90004FEA022245EA111545EA10654FEA00269D
:100EA0000EF000419D4208BF964244F1FD0404F556
:100EB000407402D25B084FEA3202B61A65EB0305B2
:100EC0005B084FEA32024FF480104FF4002CB6EB6F
:100ED000020E75EB030E22BFB61A754640EA0C00EF
:100EE0005B084FEA3202B6EB020E75EB030E22BF2F
:100EF000B61A754640EA5C005B084FEA3202B6EB70
:100F0000020E75EB030E22BFB61A754640EA9C002E
:100F10005B084FEA3202B6EB020E75EB030E22BFFE
:100F2000B61A754640EADC0055EA060E18D04FEABC
:100F3000051545EA16754FEA06164FEAC30343EA5C
:100F400052734FEAC2025FEA1C1CC0D111F4801F29
:100F50000BD141EA00014FF000004FF0004CB6E722
:100F600011F4801F04BF01430020B4F1FD0C88BFC1
:100F7000BCF5E06F3FF6AFAEB5EB030C04BFB6EBCC
:100F8000020C5FEA500C50F1000041EB045170BDBF
:100F90000EF0004E4EEA113114EB5C04C2BFD4EBEC
:100FA0000C0541EA045170BD41F480114FF0000E70
:100FB000013C90E645EA060E8DE60CEA135594EAEC
:100FC0000C0F08BF95EA0C0F3FF43BAF94EA0C0FEF
:100FD0000AD150EA01347FF434AF95EA0C0F7FF464
:100FE00025AF104619462CE795EA0C0F06D152EAB8
:100FF00003353FF4FDAE1046194622E750EA41069C
:1010000018BF52EA43067FF4C5AE50EA41047FF4AC
:101010000DAF52EA43057FF4EBAE12E74FF0FF3C11
:1010200006E000BF4FF0010C02E000BF4FF0010CE2
:101030004DF804CD4FEA410C7FEA6C5C4FEA430C5B
:1010400018BF7FEA6C5C1BD001B050EA410C0CBFAA
:1010500052EA430C91EA030F02BF90EA020F00200C
:10106000704710F1000F91EA030F58BF994208BF73
:1010700090422CBFD8176FEAE37040F00100704730
:101080004FEA410C7FEA6C5C02D150EA013C07D187
:101090004FEA430C7FEA6C5CD6D152EA033CD3D0D2
:1010A0005DF8040B704700BF8446104662468C46CC
:1010B0001946634600E000BF01B5FFF7B7FF0028FF
:1010C00048BF10F1000F01BD4DF808EDFFF7F4FF28
:1010D0000CBF012000205DF808FB00BF4DF808EDB3
:1010E000FFF7EAFF34BF012000205DF808FB00BFD6
:1010F0004DF808EDFFF7E0FF94BF012000205DF8F8
:1011000008FB00BF4DF808EDFFF7CEFF94BF0120AC
:1011100000205DF808FB00BF4DF808EDFFF7C4FFA5
:1011200034BF012000205DF808FB00BF4FEA410CEE
:101130007FEA6C5C02D150EA013C0AD14FEA430CD1
:101140007FEA6C5C02D152EA033C02D14FF000000E
:1011500070474FF0010070474A0011D212F500129B
:1011600011D20DD56FF47873B3EB62520ED44FEAFF
:10117000C12343F0004343EA505323FA02F070477F
:101180004FF00000704750EA013002D14FF0FF30BD
:1011900070474FF0000070474FEA4102B2F1E04360
:1011A00024BFB3F5001CDCF1FE5C0DD901F0004C4E
:1011B0004FEAC0024CEA5070B2F1004F40EB83009E
:1011C00008BF20F00100704711F0804F21D113F1CA
:1011D0003872BCBF01F00040704741F480114FEA03
:1011E0005252C2F11802C2F1200C10FA0CF320FA8C
:1011F00002F018BF40F001004FEAC1234FEAD323A9
:1012000003FA0CFC40EA0C0023FA02F34FEA430312
:10121000CCE77FEA625307D150EA01331EBF4FF09B
:10122000FE4040F44000704701F0004040F0FE40B6
:1012300040F40000704700BF4FEA40024FEA41030C
:101240007FEA226C02D15FEA402C08D17FEA236C4E
:1012500002D15FEA412C02D14FF0000070474FF0FD
:101260000100704753B94AB9002908BF00281CBFC4
:101270004FF0FF314FF0FF3000F0AEB9ADF1080C88
:101280006DE904CE00F03EF8DDF804E0DDE902236C
:1012900004B0704738B505460C46002200232846A6
:1012A0002146FFF71BFF28B928462146BDE83840F4
:1012B00000F00AB8284604F1004100F005F8404269
:1012C00061EB410138BD00BFD0B500220B4B064693
:1012D0000F46FFF791FCFFF73FFF0446FFF77AF850
:1012E0000022074BFFF788FC02460B463046394682
:1012F000FEF732FFFFF730FF2146D0BD0000F03D82
:101300000000F0412DE9F047089E0D46044688464E
:10131000002B4DD18A42944668D9B2FA82F252B17A
:1013200001FA02F3C2F1200120FA01F10CFA02FCE9
:1013300041EA030894404FEA1C41B8FBF1F71FFA59
:101340008CFE01FB178807FB0EF0230C43EA0843D1
:1013500098420AD91CEB030307F1FF3580F01E8188
:10136000984240F21B81023F63441B1AB3FBF1F029
:1013700001FB103300FB0EFEA4B244EA0344A64571
:101380000AD91CEB040400F1FF3380F00981A64563
:1013900040F20681644402380021A4EB0E0440EAC6
:1013A00007401EB10023D440C6E90043BDE8F087E2
:1013B0008B4208D9002E00F0EE800021C6E900051E
:1013C0000846BDE8F087B3FA83F100294AD1AB4261
:1013D00002D3824200F2FC80841A65EB03030120F1
:1013E0009846002EE2D0C6E90048DFE702B9FFDEEA
:1013F000B2FA82F2002A40F09180A1EB0C000121A8
:101400004FEA1C471FFA8CFEB0FBF7F307FB1300F3
:10141000250C45EA00450EFB03F0A84208D91CEB59
:10142000050503F1FF3802D2A84200F2CE80434600
:101430002D1AB5FBF7F007FB10550EFB00FEA4B20A
:1014400044EA0544A64508D91CEB040400F1FF3525
:1014500002D2A64500F2B6802846A4EB0E0440EA6C
:1014600003409EE7C1F120078B4022FA07FC4CEABB
:10147000030C25FA07FA4FEA1C49BAFBF9F820FADF
:1014800007F309FB18AA8D401FFA8CFE1D4300FAD2
:1014900001F308FB0EF02C0C44EA0A44A04202FAC5
:1014A00001F20BD91CEB040408F1FF3A80F08880AC
:1014B000A04240F28580A8F102086444241AB4FBDB
:1014C000F9F009FB104400FB0EFEADB245EA0444FE
:1014D000A64508D91CEB040400F1FF356CD2A645E3
:1014E0006AD90238644440EA0840A0FB0295A4EBA4
:1014F0000E04AC42C846AE4656D353D0002E69D037
:10150000B3EB080264EB0E0422FA01F304FA07F7C6
:101510001F43CC40C6E90074002147E70CFA02FCE7
:10152000C2F1200125FA01F34FEA1C4720FA01F12C
:1015300095400D43B3FBF7F107FB11331FFA8CFE07
:10154000280C40EA034001FB0EF3834204FA02F444
:1015500008D91CEB000001F1FF382FD283422DD9AE
:1015600002396044C01AB0FBF7F307FB1300ADB2B9
:1015700045EA004503FB0EF0A84208D91CEB05051F
:1015800003F1FF3816D2A84214D9023B6544281A49
:1015900043EA014138E73146304607E72F46E4E6A3
:1015A0001846F9E64B45A9D2B9EB020865EB0C0EDB
:1015B0000138A3E74346EAE7284694E74146D1E7E6
:1015C000D0467BE76444023847E7023B65442FE797
:1015D000084606E73146E9E6704700BF10B5044605
:1015E0000E4B18784FF47A73B3FBF0F30C4A106883
:1015F000B0FBF3F000F0A8F868B90F2C01D9012076
:101600000AE0002221464FF0FF3000F057F8054B6A
:101610001C60002000E0012010BD00BF0000002081
:10162000080000200400002008B5074A136843F0B2
:1016300010031360032000F02FF80F20FFF7CEFFF8
:1016400001F0F6FE002008BD00200240034A1168A8
:10165000034B1B780B441360704700BFD809002070
:1016600000000020014B1868704700BFD809002017
:1016700038B50446FFF7F6FF0546B4F1FF3F02D048
:10168000044B1B781C44FFF7EDFF401BA042FAD32C
:1016900038BD00BF00000020074AD36823F4E06390
:1016A0001B041B0C000200F4E060034343F0BF6323
:1016B00043F40033D360704700ED00E000B5194BF0
:1016C000DB68C3F30223C3F1070CBCF1040F28BF8E
:1016D0004FF0040C03F1040EBEF1060F18D9033BC2
:1016E0004FF0FF3E0EFA0CFC21EA0C0199400EFA75
:1016F00003F322EA0303194300280BDB0901C9B2F3
:1017000000F1604000F5614080F800135DF804FBD3
:101710000023E5E700F00F000901C9B2024B19549C
:10172000F4E700BF00ED00E014ED00E0002807DB67
:1017300000F01F02400901239340024A42F8203082
:10174000704700BF00E100E00138B0F1807F0BD2AC
:101750004FF0E0235861054AF02182F82310002061
:10176000986107221A6170470120704700ED00E080
:1017700090F82130DBB2022B06D0042383630023D0
:1017800080F82030012070470268136823F00E03B0
:1017900013600268136823F001031360036CC16BCC
:1017A000012202FA03F34B6080F82120002380F825
:1017B000203018467047000008B590F82130DBB2A1
:1017C000022B03D004238363012008BD0268136841
:1017D00023F00E0313600268136823F00103136003
:1017E0000368194A934214D0143293421FD0143222
:1017F00093421ED0143293421ED0143293421ED014
:101800001432934202D04FF0807203E04FF4801202
:1018100000E001220D4B5A60012380F821300023A3
:1018200080F82030436B6BB198470020CDE7102241
:10183000F0E74FF48072EDE74FF48052EAE74FF49F
:101840008032E7E70020C0E70800024000000240C5
:1018500070B582B00024A446A6E0804DAA4210D004
:1018600007D97F4DAA420CD005F58035AA4208D091
:1018700013E0A5F58015AA4203D005F57025AA420C
:1018800007D18A68002A58D0012A51D04361082420
:1018900003E0A5F58015AA42F3D0BEF1FF0F4ED8A4
:1018A0000646BEF1FF0F4CD84FEA8C0233680F2575
:1018B000954023EA050304FA02F2134333604B68B0
:1018C00013F0805F6ED0674B9A6942F001029A6113
:1018D0009B6903F001030193019B4FEA9C02951C55
:1018E000614B53F825600CF003039D000F23AB40C0
:1018F00026EA03065D4B984229D003F5806398429F
:1019000000F08E8003F58063984200F08B8003F531
:101910008063984219D004231AE0CC68BDE7CC68F4
:101920000434BAE7CC680834B7E7CC680C34B4E7C1
:1019300003610824B1E70024AFE70424ADE7061DE6
:10194000AFE7ACF108029200B0E7032300E0002308
:10195000AB4033430232444D45F822304B6813F418
:10196000801F61D0424A936843EA0E0393604B683C
:1019700013F4001F5ED03E4AD36843EA0E03D360DF
:101980004B6813F4003F5BD0394A536843EA0E03B7
:1019900053604B6813F4803F58D0354A136843EACC
:1019A0000E0313600CF1010C0A6832FA0CF353D0E9
:1019B000012303FA0CF302EA030E33EA0202F1D127
:1019C0004A68122A3FF649AF122A3FF666AF01A5D0
:1019D00055F822F0831800081B1900082519000883
:1019E000371900089B1800089B1800089B1800086E
:1019F0009B1800089B1800089B1800089B180008FB
:101A00009B1800089B1800089B1800089B180008EA
:101A10009B1800089B1800081F1900082B190008C4
:101A2000012395E7022393E7114A936823EA0E0303
:101A300093609CE70E4AD36823EA0E03D3609FE7C6
:101A40000B4A536823EA0E035360A2E7084A13685F
:101A500023EA0E031360A5E702B070BD0000221058
:101A60000000311000100240000001400008014059
:101A7000000401400AB10161704709040161704727
:101A800082B0084B1B68084AA2FB03235B0A00FBD9
:101A900003F3019300BF019B5A1E0192002BF9D161
:101AA00002B0704708000020D34D6210002800F0FB
:101AB000F18170B582B00446036813F0010F2CD099
:101AC000994B5B6803F00C03042B1DD0964B5B68AD
:101AD00003F00C03082B12D06368B3F5803F41D0AC
:101AE000002B55D103F1804303F504331A6822F427
:101AF00080321A601A6822F480221A6037E08A4B1A
:101B00005B6813F4803FE7D0874B1B6813F4003FFA
:101B100003D06368002B00F0BF81236813F0020F2D
:101B200075D0814B5B6813F00C0F5FD07E4B5B6808
:101B300003F00C03082B54D02369002B00F08A809B
:101B40007A4B01221A60FFF78DFD0546764B1B6824
:101B500013F0020F75D1FFF785FD401B0228F5D960
:101B600003209EE1704A136843F480331360636876
:101B700043B3FFF777FD05466B4B1B6813F4003F3B
:101B8000CBD1FFF76FFD401B6428F5D9032088E116
:101B9000B3F5A02F09D0644B1A6822F480321A6082
:101BA0001A6822F480221A60E1E703F18043A3F56A
:101BB0003C331A6842F480221A601A6842F4803278
:101BC0001A60D4E7FFF74EFD0546574B1B6813F428
:101BD000003FA2D0FFF746FD401B6428F5D9032043
:101BE0005FE1514B5B6813F4803FA5D14E4B1B68FE
:101BF00013F0020F03D02369012B40F04F814A4AB2
:101C0000136823F0F803616943EAC1031360236892
:101C100013F0080F33D0A369002B5CD0434B012293
:101C2000C3F88024FFF71EFD05463F4B5B6A13F0A7
:101C3000020F21D1FFF716FD401B0228F5D9032022
:101C40002FE1394A136823F0F803616943EAC103BD
:101C50001360DCE7354B00221A60FFF703FD0546F1
:101C6000314B1B6813F0020FD1D0FFF7FBFC401B78
:101C70000228F5D9032014E10120FFF701FF2368B2
:101C800013F0040F00F09680274BDB6913F0805FA0
:101C900034D1254BDA6942F08052DA61DB6903F016
:101CA00080530193019B0125214B1B6813F4807F16
:101CB00026D0E368012B3DD0002B53D103F18043A4
:101CC00003F504331A6A22F001021A621A6A22F03A
:101CD00004021A6233E0154B0022C3F88024FFF798
:101CE000C1FC0546104B5B6A13F0020FC7D0FFF72B
:101CF000B9FC401B0228F5D90320D2E00025D3E728
:101D00000B4A136843F480731360FFF7ABFC06467D
:101D1000074B1B6813F4807FCBD1FFF7A3FC801B1C
:101D20006428F5D90320BCE00010024000004242C4
:101D3000007000405F4A136A43F001031362E368D6
:101D400033B3FFF78FFC06465A4B1B6A13F0020FA2
:101D50002FD1FFF787FC801B41F288339842F3D9DB
:101D600003209EE0052B09D0524B1A6A22F0010293
:101D70001A621A6A22F004021A62E0E74D4B1A6AEC
:101D800042F004021A621A6A42F001021A62D6E7AD
:101D9000FFF768FC0646474B1B6A13F0020F08D09A
:101DA000FFF760FC801B41F288339842F3D903208F
:101DB00077E0E5B9E369002B72D03E4A526802F041
:101DC0000C02082A56D0022B17D03B4B00221A6671
:101DD000FFF748FC0446374B1B6813F0007F47D0E1
:101DE000FFF740FC001B0228F5D9032059E0314AD7
:101DF000D36923F08053D361DCE72F4B00221A66AE
:101E0000FFF730FC05462B4B1B6813F0007F06D014
:101E1000FFF728FC401B0228F5D9032041E0236A84
:101E2000B3F5803F1AD023494B6823F47413226A18
:101E3000606A024313434B601F4B01221A66FFF78F
:101E400011FC04461B4B1B6813F0007F0ED1FFF7FB
:101E500009FC001B0228F5D9032022E0154A53682B
:101E600023F40033A1680B435360DCE7002018E043
:101E7000002016E0012B16D00E4B5B6803F4803176
:101E8000226A914211D103F47013626A93420ED117
:101E9000002006E001207047012002E0012000E060
:101EA000002002B070BD0120FBE70120F9E701200E
:101EB000F7E700BF00100240000042420F4B5B6892
:101EC00003F00C02082A01D00D487047C3F3834287
:101ED0000C49885C13F4803F0BD0084B5B68C3F35C
:101EE0004043094AD35C064A02FB00F0B0FBF3F022
:101EF0007047064B03FB00F0704700BF0010024024
:101F000000127A0018B8000828B8000800093D003F
:101F1000002800F0A08070B50D460446524B1B68A7
:101F200003F007038B420BD24F4A136823F00703D9
:101F30000B431360136803F007038B4240F08D805E
:101F4000236813F0020F17D013F0040F04D0474A90
:101F5000536843F4E0635360236813F0080F04D020
:101F6000424A536843F460535360404A536823F035
:101F7000F003A1680B435360236813F0010F31D0C5
:101F80006368012B20D0022B25D0384A126812F04A
:101F9000020F64D035494A6822F0030213434B60B4
:101FA000FFF760FB0646314B5B6803F00C03626889
:101FB000B3EB820F16D0FFF755FB801B41F288333D
:101FC0009842F0D9032045E0284A126812F4003FF5
:101FD000E0D101203EE0254A126812F0007FD9D1FD
:101FE000012037E0204B1B6803F00703AB420AD9FE
:101FF0001D4A136823F007032B431360136803F093
:102000000703AB422DD1236813F0040F06D0174A03
:10201000536823F4E063E1680B435360236813F0D3
:10202000080F07D0114A536823F46053216943EA2B
:10203000C1035360FFF742FF0C4B5B68C3F303130C
:102040000B4AD35CD8400B4B18600B4B1868FFF75A
:10205000C5FA002070BD012070470120FAE7012079
:10206000F8E70120F6E700BF002002400010024020
:102070003CB800080800002004000020014B18684C
:10208000704700BF0800002008B5FFF7F7FF044BBA
:102090005B68C3F30223034AD35CD84008BD00BF8A
:1020A000001002404CB8000808B5FFF7E7FF044BEA
:1020B0005B68C3F3C223034AD35CD84008BD00BFAA
:1020C000001002404CB8000870B4036A026A22F0A3
:1020D000010202624668826922F073020C6844EAD7
:1020E000020523F002028B6813430D4CA04209D075
:1020F0000B4CA0420DD0466085614A684263036282
:1021000070BC704723F00803CA68134323F004032C
:10211000EEE726F440764A6932438E691643EAE7D1
:10212000002C014030B4036A026A22F48072026219
:102130004568C26922F073020C68224323F40073DD
:102140008C6843EA04230F4CA04209D00D4CA042F6
:102150000ED04560C2614A68C263036230BC7047FA
:1021600023F40063CC6843EA042323F48063EDE79F
:1021700025F440554C6945EA04158C6945EA041577
:10218000E7E700BF002C014030B4036A026A22F482
:10219000805202624468C26922F4E6420D6842EA53
:1021A000052223F400538D6843EA0533074DA84206
:1021B00006D04460C2614A680264036230BC704762
:1021C00024F480444D6944EA8514F2E7002C014070
:1021D00010B4036A046A24F001040462846924F0E0
:1021E000F00C4CEA021223F00A030B4382610362F3
:1021F00010BC704710B4036A046A24F0100404622F
:10220000846924F4704C4CEA023223F0A00343EAC0
:1022100001138261036210BC7047836823F070036E
:102220000B4343F0070383607047000090F83D3094
:10223000DBB2012B27D1022380F83D300268D3683E
:1022400043F00103D3600368114A934210D0B3F105
:10225000804F0DD0A2F59432934209D002F58062EE
:10226000934205D01A6842F001021A6000207047BC
:102270009A6802F00702062A07D01A6842F00102A3
:102280001A6000207047012070470020704700BF8F
:10229000002C01407047704770477047704710B579
:1022A000044603681A6912F0020F11D0DA6812F0BE
:1022B000020F0DD06FF002021A6101230377036849
:1022C0009B6913F0030F70D0FFF7E6FF002323771D
:1022D00023681A6912F0040F12D0DA6812F0040FA2
:1022E0000ED06FF004021A610223237723689B69E2
:1022F00013F4407F5FD02046FFF7CEFF0023237703
:1023000023681A6912F0080F12D0DA6812F0080F69
:102310000ED06FF008021A61042323772368DB696B
:1023200013F0030F4ED02046FFF7B6FF00232377AC
:1023300023681A6912F0100F12D0DA6812F0100F29
:102340000ED06FF010021A61082323772368DB692F
:1023500013F4407F3DD02046FFF79EFF00232377F4
:1023600023681A6912F0010F03D0DA6812F0010F26
:1023700036D123681A6912F0800F03D0DA6812F0A0
:10238000800F34D123681A6912F0400F03D0DA6845
:1023900012F0400F32D123681A6912F0200F03D0D7
:1023A000DA6812F0200F30D110BDFFF774FF20461D
:1023B000FFF773FF8AE72046FFF76DFF2046FFF720
:1023C0006CFF9BE72046FFF766FF2046FFF765FF9F
:1023D000ACE72046FFF75FFF2046FFF75EFFBDE753
:1023E0006FF001021A61204601F01CFBC1E76FF09B
:1023F00080021A61204600F06BFBC3E76FF04002D9
:102400001A612046FFF74AFFC5E76FF020021A6104
:10241000204600F05CFBC7E703681B4A90420AD0E5
:10242000B0F1804F07D0A2F59432904203D002F56C
:102430008062904203D123F070034A681343124A2A
:1024400090420AD0B0F1804F07D0A2F5943290426A
:1024500003D002F58062904203D123F44073CA682E
:10246000134323F080034A69134303608B68C362FC
:102470000B688362044B984202D00123436170478A
:102480000B690363F9E700BF002C014040B310B5AE
:10249000044690F83D30F3B1022384F83D302146E4
:1024A00051F8040BFFF7B8FF012384F8463084F895
:1024B0003E3084F83F3084F8403084F8413084F86E
:1024C000423084F8433084F8443084F8453084F84E
:1024D0003D30002010BD80F83C3001F0B5F8DBE75E
:1024E0000120704740B310B5044690F83D30F3B179
:1024F000022384F83D30214651F8040BFFF78CFF8E
:10250000012384F8463084F83E3084F83F3084F864
:10251000403084F8413084F8423084F8433084F805
:10252000443084F8453084F83D30002010BD80F8F8
:102530003C30FFF7AFFEDBE701207047002857D0A3
:1025400070B50D46044690F83D30002B4BD0022369
:1025500084F83D302268936823F4804323F0070316
:102560009360214651F8040BFFF756FF21688A68F3
:102570008B690E6A2868104323F4407C2CF0030C0E
:10258000AA68AB6942EA032343EA0C0323F47C43C1
:1025900023F0FC03EA69D5F80CC04CEA022C4CEAA3
:1025A000030C2A6A13032A6943EA021343EA0C0361
:1025B00026F022066A686D6942EA05123243886095
:1025C00021688B6123681A62012384F8463084F8FD
:1025D0003E3084F83F3084F8423084F8433084F849
:1025E0003D30002070BD80F83C3001F05DF8AEE772
:1025F0000120704730B4036A026A22F010020262BE
:102600004468826922F4E6420D6842EA052223F01A
:1026100020038D6843EA05130E4DA84209D00D4DE5
:10262000A8420ED0446082614A688263036230BC73
:10263000704723F08003CD6843EA051323F040037D
:10264000EDE724F440644D6944EA85048D6944EA69
:102650008504E7E7002C014038B590F83C30012BA9
:1026600066D004460D46012380F83C300C2A5AD827
:10267000DFE802F0075959591B595959305959592E
:1026800044000068FFF720FD2268936943F00803C7
:1026900093612268936923F004039361226893692C
:1026A00029690B43936100203EE00068FFF7A2FF19
:1026B0002268936943F4006393612268936923F469
:1026C0008063936122689369296943EA01239361D6
:1026D000002029E00068FFF725FD2268D36943F058
:1026E0000803D3612268D36923F00403D36122680D
:1026F000D36929690B43D361002015E00068FFF717
:1027000043FD2268D36943F40063D3612268D3692F
:1027100023F48063D3612268D369296943EA0123E2
:10272000D361002000E00120002384F83C3038BD54
:102730000220FCE710B4846824F47F4C42EA0322B0
:102740000A4342EA0C02826010BC704790F83C30A9
:10275000012B78D010B50446012380F83C300223C9
:1027600080F83D300268936823F47F4323F07703B9
:1027700093600B68602B4CD029D8402B54D00CD9D7
:10278000502B22D1CA6849680068FFF721FD50210B
:102790002068FFF742FD002005E0202B0DD009D96D
:1027A000302B0AD00120012384F83D30002384F827
:1027B0003C3010BD0BB1102B05D119462068FFF736
:1027C0002CFD0020EFE70120EDE70120EBE7B3F55A
:1027D000805F34D0B3F5005F0CD1CB684A6889685C
:1027E0000068FFF7A7FF2268936843F48043936073
:1027F0000020D8E7702B24D1CB684A68896800682C
:10280000FFF798FF2268936843F0770393600020F6
:10281000C9E7CA6849680068FFF7ECFC60212068D6
:10282000FFF7FBFC0020BEE7CA6849680068FFF7B5
:10283000CFFC40212068FFF7F0FC0020B3E7002028
:10284000B1E70120AFE70220704701F01F0101232B
:1028500003FA01FC036A23EA0C030362036A02FA27
:1028600001F10B430362704710B50446084651BBA3
:1028700094F83E30DBB2013B18BF0123002B5BD143
:10288000002839D1022384F83E3001220146206815
:10289000FFF7DBFF23682A4A93423DD02368284A8A
:1028A00093423ED0B3F1804F3BD0A2F59432934295
:1028B00037D002F58062934233D01A6842F00102A9
:1028C0001A60002039E0042908D008290DD094F8B6
:1028D0004130DBB2013B18BF0123CFE794F83F3012
:1028E000DBB2013B18BF0123C8E794F84030DBB2EC
:1028F000013B18BF0123C1E7042805D0082807D0F1
:10290000022384F84130C0E7022384F83F30BCE75B
:10291000022384F84030B8E75A6C42F400425A640B
:10292000BCE79A6802F00702062A07D01A6842F04C
:1029300001021A60002000E0012010BD0020FCE729
:10294000002C014038B5044690F83E00C0B294F81F
:102950003F3094F84220D2B294F843C00D46B1B94A
:10296000012849D1012A48D1022384F83E3084F855
:1029700042307DB3042D39D0012200212068FFF7B9
:1029800064FF012204212068FFF75FFF27E0DBB22C
:102990005FFA8CFC042912D0012833D1012B2CD1F1
:1029A000012A31D1BCF1010F30D1022384F83E302D
:1029B00084F83F3084F8423084F84330D9E7012B63
:1029C0001CD1BCF1010F1BD1022384F83F3084F8E5
:1029D0004330CEE7012200212068FFF736FF22684E
:1029E000136843F001031360002006E00122042174
:1029F0002068FFF72AFFF2E7012038BD0120FCE73D
:102A00001846FAE70120F8E71846F6E71046F4E71B
:102A100090F83C30012B2CD010B4012380F83C30CE
:102A2000022380F83D3003685A689C6822F0700CDD
:102A30000A6842EA0C025A6003680F4A93420AD0BD
:102A4000B3F1804F07D0A2F59432934203D002F540
:102A50008062934204D124F080044A6814439C604D
:102A6000012380F83D30002380F83C30184610BC2C
:102A700070470220704700BF002C014090F83C30A6
:102A8000012B22D0012380F83C30CB6823F4407323
:102A90008A68134323F480634A68134323F4006372
:102AA0000A68134323F480530A69134323F4005341
:102AB0004A69134323F48043CA6913430268536489
:102AC000002380F83C30184670470220704770475A
:102AD0007047026802F10C0353E8003F23F490733F
:102AE0000C3242E800310029F3D1026802F11403EC
:102AF00053E8003F23F00103143242E8003100297B
:102B0000F3D1036B012B05D0202380F84230002342
:102B100003637047026802F10C0353E8003F23F09F
:102B200010030C3242E800310029F3D1ECE790F8B1
:102B30004130DBB2212B01D0022070478368B3F50E
:102B4000805F17D0036A5A1C02621A7803685A60C1
:102B5000C38C9BB2013B9BB2C3844BB90268D36860
:102B600023F08003D3600268D36843F04003D3604E
:102B7000002070470369002BE4D1036A1B880268B8
:102B8000C3F308035360036A02330362E0E7000003
:102B900010B504460268136923F44053C1680B431F
:102BA000136183680269134342691A430168CB6861
:102BB00023F4B05323F00C031343CB600268536932
:102BC00023F4407381690B4353610268134B9A42AB
:102BD00020D0FFF759FA024602EB820202EB820292
:102BE00063689B00B2FBF3F20D48A0FB0231490978
:102BF000642303FB11231B013233A0FB03235B0976
:102C000003F0F00202EB011203F00F0321681344FA
:102C10008B6010BDFFF748FA0246DDE7003801403F
:102C20001F85EB512DE9F84305460F461646994698
:102C3000DDF820802C68246837EA04030CBF4FF0CD
:102C4000010C4FF0000CB4452DD1B8F1FF3FF1D08D
:102C5000B8F1000F05D0FEF705FDA0EB09004045D7
:102C6000E8D92A6802F10C0353E8003F23F4D0733B
:102C70000C3242E800310029F3D12A6802F1140332
:102C800053E8003F23F00103143242E800310029E9
:102C9000F3D1202385F8413085F84230002385F8B0
:102CA0004030032000E00020BDE8F88360B310B599
:102CB000044690F8413013B3242384F8413022684D
:102CC000D36823F40053D3602046FFF761FF2268E6
:102CD000136923F4904313612268536923F02A0394
:102CE00053612268D36843F40053D36000206064CA
:102CF000202384F8413084F84230606310BD80F8AE
:102D0000403000F0F1FDD7E7012070472DE9F04198
:102D100082B01E4690F84130DBB2202B4BD10446E6
:102D20000D46904600294AD00AB9012044E000230C
:102D30004364212380F84130FEF794FC0746A4F851
:102D40002480A4F82680A368B3F5805F02D04FF0FA
:102D500000080FE02369FBB14FF000080AE038F8E3
:102D6000023B2268C3F308035360E28C92B2013A3B
:102D700092B2E284E38C9BB28BB100963B46002278
:102D800080212046FFF74EFFD8B9002DE7D015F877
:102D9000012B23685A60E8E7A8460025EAE7009679
:102DA0003B46002240212046FFF73CFF58B9202334
:102DB00084F8413000E0022002B0BDE8F08101203B
:102DC000FAE70320F8E70320F6E7704708B5016843
:102DD000CA6822F04002CA60202280F84120FFF732
:102DE000F4FF002008BD704708B5406A0023C38582
:102DF000C384FFF7F8FF08BD704790F84230DBB29C
:102E0000222B69D18368B3F5805F4FD0826AB3F516
:102E1000805F04D0002B56D10369002B53D1036887
:102E20005B681370836A01338362C38D9BB2013B7D
:102E30009BB2C385002B51D100B583B00268D36823
:102E400023F02003D3600268D36823F48073D36037
:102E50000268536923F001035361202380F8423054
:102E600000234363036B012B33D100230363026808
:102E700002F10C0353E8003F23F010030C3242E848
:102E800000310029F3D103681A6812F0100F06D040
:102E9000002201921A6801925B680193019B818D67
:102EA000FFF7AAFF002003B05DF804FB0269002AC7
:102EB000ACD1826A03685B68C3F308031380836A3A
:102EC00002338362B1E703685B6803F07F0313702A
:102ED000A8E700F0B1FCE5E702207047002070474A
:102EE00030B583B0044602681368D068516913F0A6
:102EF0000F0505D113F0200F02D010F0200F19D1CB
:102F00002DB111F0010119D110F4907F16D1216B70
:102F100001297DD013F0800F03D010F0800F40F016
:102F2000188113F0400F03D010F0400F40F01581CE
:102F300003B030BD2046FFF760FFF9E713F0010F43
:102F400006D010F4807F03D0626C42F0010262640C
:102F500013F0040F04D019B1626C42F002026264F3
:102F600013F0020F04D019B1626C42F004026264E3
:102F700013F0080F07D010F0200F00D119B1626CC8
:102F800042F008026264626C002AD1D013F0200F74
:102F900002D010F0200F29D123685B6903F04003B1
:102FA000626C12F0080F00D163B32046FFF791FD69
:102FB00023685B6913F0400F20D0226802F11403EC
:102FC00053E8003F23F04003143242E80031002967
:102FD000F3D1E36B73B1634A5A63E06BFEF7ECFB2A
:102FE0000028A5D0E06B436B9847A1E72046FFF788
:102FF00004FFD1E72046FFF7F6FE99E72046FFF7EA
:10300000F2FE95E72046FFF7EEFE002363648FE7AC
:1030100013F0100F3FF47EAF10F0100F3FF47AAFB3
:10302000002301931368019353680193019B536933
:1030300013F0400F51D0E26B13685B689BB2002B1A
:103040003FF476AFA18D99427FF672AFE385936925
:10305000202B37D0226802F10C0353E8003F23F401
:1030600080730C3242E800310029F3D1226802F16A
:10307000140353E8003F23F00103143242E8003107
:103080000029F3D1226802F1140353E8003F23F032
:103090004003143242E800310029F3D1202384F8A0
:1030A000423000232363226802F10C0353E8003FFF
:1030B00023F010030C3242E800310029F3D1E06B19
:1030C000FEF756FB02236363A18DE38D9BB2C91A01
:1030D00089B22046FFF790FE2AE7A18DE38D9BB2CF
:1030E000C91A89B2E38D9BB2002B3FF421AF0029AE
:1030F0003FF41EAF226802F10C0353E8003F23F4B3
:1031000090730C3242E800300028F3D1226802F1BB
:10311000140353E8003F23F00103143242E8003067
:103120000028F3D1202384F842300023236322684F
:1031300002F10C0353E8003F23F010030C3242E885
:1031400000300028F3D1022363632046FFF754FECA
:10315000EEE62046FFF7EBFCEAE62046FFF736FEF8
:10316000E6E600BFE92D000881628285C285002362
:103170004364222380F84230036923B10268D36894
:1031800043F48073D3600268536943F001035361D1
:103190000268D36843F02003D3600020704708B56D
:1031A00090F84230DBB2202B08D149B10AB9012096
:1031B00008BD00230363FFF7D7FFF9E70220F7E715
:1031C0000120F5E7002303604360436283600361ED
:1031D000C36043618361C36103627047F8B504460D
:1031E00041680068FDF79CF90546A0606169FDF73C
:1031F00099F960611549FDF759FC08B1134B6361FA
:1032000013496069FDF734FC08B1114B6361A16992
:103210002846FDF78FFA06466169E069FDF78AFAEC
:1032200001463046FDF77EF90646276AE1682846E2
:10323000FDF776F901463846FDF77CFA014630463F
:10324000FDF770F96062E560F8BD00BF00401C4604
:1032500000401CC630B587B0002402940394049447
:103260000594134B9A6942F020029A619A6902F020
:1032700020020092009A9A6942F004029A619B69C6
:1032800003F004030193019B0A4D22466021284666
:10329000FEF7F0FB602302930123039304940223BF
:1032A000059302A92846FEF7D3FA07B030BD00BF48
:1032B000001002400008014000B583B001904FF6B5
:1032C000FF73012201A90348FFF720FD019803B015
:1032D0005DF804FB200B002072B6FEE700B591B04C
:1032E0002822002106A800F06BFC00230193029322
:1032F000039304930593012206924FF480330793BE
:103300000A9202220D920E934FF4E0130F9306A837
:10331000FEF7CCFB80B90F23019302210291002319
:1033200003934FF480620492059301A8FEF7F0FD29
:1033300020B911B05DF804FBFFF7CEFFFFF7CCFF1B
:1033400080B584B0FEF770F9FFF7C8FFFFF782FF82
:1033500000F0FEF900F00AF900F03EF900F0AAFAD8
:1033600000212748FFF780FA2648FEF75FFF264C2A
:1033700000212046FFF7E6FA04212046FFF7E2FA93
:10338000236800225A62012220492148FFF707FFE3
:10339000204D2846FFF716FF1F4C2046FFF712FF6F
:1033A0001E4A0D214FF0804000F0A6FBFDF76EF99C
:1033B00020601B4BA3610023E3611A4A22621A4A70
:1033C000AA614FF07E52EA612B62124B5E689F69E0
:1033D0001868FDF721F804460D463846FDF71CF83D
:1033E000CDE902013046FDF717F8CDE9000122468C
:1033F0002B460E4800F036FC0A20FEF739F9E4E7C8
:10340000300A0020C00A0020780A0020680B002043
:10341000200B0020040A0020DC0900200000F041FD
:10342000CDCC4C3ECDCCCC3E0000F0422CB80008B8
:1034300082B00E4B9A6942F001029A619A6902F0D9
:1034400001020092009ADA6942F08052DA61DB6987
:1034500003F080530193019B054A536823F0E06316
:1034600043F00073536002B0704700BF0010024089
:1034700000000140FEE7FEE7FEE7FEE7FEE77047DB
:103480007047704708B5FEF7E1F808BD08B5024877
:10349000FEF705FF08BD00BFC00A002008B50248BE
:1034A000FFF71EFD08BD00BF200B00200120704764
:1034B00008B500F05BFB162303604FF0FF3008BD3A
:1034C00008B54FF0FF31FFF7F3FFFEE770B50C468C
:1034D0001646002506E0AFF30080214601F8010BF7
:1034E00001350C46B542F6DB304670BD70B50C4672
:1034F0001646002504E014F8010BFFF7DDFE013548
:10350000B542F8DB304670BD4FF0FF3070474FF4E6
:1035100000534B6000207047012070470020704727
:1035200010B503460C4A0D490D48006840B10C48DF
:1035300000680344521A934206D8094A136010BD2A
:103540000748084C0460F2E700F010FB0C2303600E
:103550004FF0FF30F3E700BF0050002000040000F0
:103560002C0A0020B80B00207047000000B58DB079
:103570002422002103A800F023FB002301930293DF
:1035800014484FF080420260436083604FF6FF7240
:10359000C2600361802383610323039301220592A8
:1035A0000A23079309920B9303A9FEF7C7FF50B9AB
:1035B00000230193029301A90648FFF729FA28B9CD
:1035C0000DB05DF804FBFFF787FEF1E7FFF784FE1F
:1035D000F6E700BF780A002000B587B00023029309
:1035E000039304930593009301931548154A0260D1
:1035F00041F61F42426083606322C2600361802300
:103600008361FEF743FF90B94FF48053029302A900
:103610000B48FFF79BF868B90023009301936946B4
:103620000748FFF7F5F940B907B05DF804FBFFF76D
:1036300053FEE9E7FFF750FEEEE7FFF74DFEF3E735
:10364000C00A00200004004000B583B00368134A9C
:10365000934205D0124A93420DD003B05DF804FBAB
:10366000104B9A6942F400629A619B6903F400630B
:103670000093009BF1E70B4BDA6942F00202DA613A
:10368000DB6903F002030193019B002211461D2018
:10369000FEF714F81D20FEF749F8DEE7002C014084
:1036A000000400400010024000B587B000230293E0
:1036B0000393049305930368B3F1804F02D007B0DE
:1036C0005DF804FB03F50433DA6942F00102DA61C4
:1036D000DA6902F001020092009A9A6942F004024B
:1036E0009A619B6903F004030193019B03230293F6
:1036F00002A90248FEF7ACF8E1E700BF000801406C
:1037000000B587B0002302930393049305930268E6
:103710000D4B9A4202D007B05DF804FB03F56443F9
:103720009A6942F004029A619B6903F004030193D1
:10373000019B4FF48073029302230393059302A924
:103740000248FEF785F8E6E7002C0140000801403A
:1037500010B596B0002412941394149415941094F8
:10376000119409940A940B940C940D940E940F9454
:103770002022214601A800F023FA2D482D4B03609A
:103780004460846041F61F43C36004614461802348
:103790008361FEF77BFE002837D14FF480531293EC
:1037A00012A92348FEF7D2FF002831D12048FEF7A6
:1037B00099FE00282FD100231093119310A91C48C3
:1037C000FFF726F950BB6023099300220A920B925F
:1037D0000C920D920E920F9209A91548FEF73CFF2C
:1037E000F8B90023019302930393049305934FF4D4
:1037F00000520692089301A90D48FFF73FF998B9C6
:103800000B48FFF77DFF16B010BDFFF765FDC4E75D
:10381000FFF762FDCAE7FFF75FFDCCE7FFF75CFD4E
:10382000D1E7FFF759FDDCE7FFF756FDE8E700BFFA
:10383000300A0020002C014038B50268154B9A422E
:1038400005D0012214491548FFF7A9FC38BD144BD7
:103850001A68511C1960104B1B7812498B540A2BA3
:10386000EFD100250E4B1D600C46084600F07AF99A
:103870000D4A0D2100F040F9FCF708FF0B4B1860D2
:1038800025606560A560E5602561094800F04CFA97
:10389000D7E700BF00380140680B0020200B002054
:1038A0001C0B0020080B00200000F041DC09002068
:1038B00054B8000808B50A480A4B03604FF4E133D6
:1038C000436000238360C36003610C224261836113
:1038D000C361FFF7EBF900B908BDFFF7FDFCFBE79B
:1038E000200B00200038014030B587B00023029340
:1038F00003930493059302681B4B9A4201D007B0CF
:1039000030BD03F558439A6942F480429A619A693E
:1039100002F480420092009A9A6942F004029A618D
:103920009B6903F004030193019B4FF4007302931E
:1039300002230393032305930C4D02A92846FDF7A8
:1039400087FF4FF48063029300240394049402A938
:103950002846FDF77DFF224621462520FDF7AEFED5
:103960002520FDF7E3FECAE70038014000080140CA
:10397000FFF7FAFD0B480C490C4A002302E0D4582B
:10398000C4500433C4188C42F9D3094A094C0023AB
:1039900001E013600432A242FBD300F0EDF8FFF720
:1039A000CFFC704700000020BC09002064BE000866
:1039B000BC090020B40B0020FEE70000012800D065
:1039C000704738B50C4600290EDB0F4D0022202130
:1039D0002846FEF74FF8012240212846FEF74AF814
:1039E0000A4B1B685C6338BD074D01222021284625
:1039F000FEF740F8002240212846FEF73BF8034B33
:103A00001B6864425C63EEE700080140300A002056
:103A1000034608464A429A4200DC1A46824200DCCB
:103A2000104670470268234B9A4200D0704770B529
:103A3000022000F049F8FCF729FE01461E4B5860B1
:103A40001E4C6068FCF76EFD60602046FFF7C6FB09
:103A5000054660620A231E220D21194800F05FF816
:103A600006462846FDF72CF83146FFF7D1FFFCF754
:103A70000DFE0546606221686068FCF751FD20F08C
:103A800000401049FCF7F4FF38B100210120FFF796
:103A900095FF094B00225A6170BD074C25602046F6
:103AA000FFF79CFB6062FDF70BF801460120FFF772
:103AB00085FFF1E700040040040A0020DC09002033
:103AC00000007A4300004040022803D0032808D0B9
:103AD00000207047064B1B68586A00B200225A62E9
:103AE0007047044B1B68586A00B200225A62704744
:103AF000780A0020C00A002038B50D461146FCF7B0
:103B000019FE04462846FCF7C1FD2146FCF712FECB
:103B10004FF08141FCF70EFEFCF7D2FF38BD70B5C7
:103B200004460E461D461046FCF7B0FD2146FCF744
:103B300001FE04463046FCF7A9FD2146FCF7FAFDDC
:103B40004FF08141FCF7F6FD04464EF6602090FBF5
:103B5000F5F0FCF79BFD01462046FCF79FFEFCF7C5
:103B6000AFFF70BD002101F0B3B800BF014B186872
:103B7000704700BF0C00002070B50D4E0D4D761B38
:103B8000B61006D0002455F8043B01349847A642ED
:103B9000F9D1094E094D07F033FE761BB61006D059
:103BA000002455F8043B01349847A642F9D170BD72
:103BB00058BE000858BE000860BE000858BE000885
:103BC000830730B548D0541E002A3FD00346CAB2FE
:103BD00001E0013C3AD303F8012B9D07F9D1032CF6
:103BE0002DD9CDB245EA05250F2C45EA054536D934
:103BF000A4F1100222F00F0C03F1200EE6444FEA6C
:103C0000121C03F1100242E9045542E90255103238
:103C10007245F8D10CF1010214F00C0F03EB021203
:103C200004F00F0C13D0ACF1040323F003030433AE
:103C3000134442F8045B9342FBD10CF003042CB113
:103C4000CAB21C4403F8012B9C42FBD130BD644630
:103C50001346002CF4D1F9E703461446BFE71A4691
:103C6000A446E0E70FB400B5074A83B004AB106880
:103C700053F8042B8168019301F07AF803B05DF8E2
:103C800004EB04B0704700BF0C00002030B50546BF
:103C900089B008460C4600F04FF801210223214A62
:103CA00004940692AA6B04AC059008440194079111
:103CB000AC680293039022B3636E13F0010FB4F962
:103CC0000C309AB201D1980525D5910406D4626EC4
:103CD00043F4005322F40052A3816266284601AAED
:103CE000214604F069F9636E002814BF4FF0FF35D8
:103CF0000A25DA0702D4A3899B0506D5284609B010
:103D000030BD284603F060FFD6E7A06D04F024FF25
:103D1000284609B030BDA06D04F01CFFB4F90C308A
:103D20009AB2D2E75CB80008024B01461868FFF768
:103D3000ADBF00BF0C00002020F0030110F0030015
:103D4000C0F1000051F8043B00F1040C4FEACC0C28
:103D50006FF000021CBF22FA0CF213434FF0010C6B
:103D60004CEA0C2C4CEA0C4CA3EB0C0222EA0302AA
:103D700012EACC1204BF51F8043B0430F4D0C2F173
:103D8000000102EA0102B2FA82F2C2F11F0200EB64
:103D9000D2007047000000002DE9F04F0025824658
:103DA0009748A1B00068884607921C4608901C9569
:103DB000FFF7C2FF0021834600204246CDE90401FF
:103DC000CDF86C80174612F8013B2D2B2FD8DFE879
:103DD00013F0A0002E002E002E002E002E002E002C
:103DE0002E002E00AD00AD00AD00AD00AD002E00E8
:103DF0002E002E002E002E002E002E002E002E0053
:103E00002E002E002E002E002E002E002E002E0042
:103E10002E00AD002E002E002E002E002E002E00B3
:103E20002E002E002E002E0002042E00F803002289
:103E30000992302B7CD000220B922F2B1C4640F293
:103E400029854FF0000938464E464D4612E00130B4
:103E5000082D1B90C8BF09EB89090478C6BF03EB86
:103E60004903A3F13009A2F130062F2C234605F1B6
:103E700001056EDD06EB8602392C03EB4202E6DD1E
:103E80005A46089906F00CFA002835D11B9B1A46B1
:103E90005B441B9312F80B40002D40F0A885302C9A
:103EA00040F06085C3F10102981801331B931C7820
:103EB000302CF9D0A4F13103082B00F23583A4F1A2
:103EC000300E1B9C00230125274600F1010B0A93AD
:103ED000002006EB86060EEB4606631C1B936478F7
:103EE000A4F13001092900F2E9828E46013000294F
:103EF00040F0AF841B9CF0E70020652C834684468D
:103F00000A9501D0452C30D1002D7ED10B9B034367
:103F10007AD14FF0000B079BD94613B1079BC3F82A
:103F200000805846494621B0BDE8F08F1B9249E712
:103F30007B7803F0DF03582B00F06D8401371B976B
:103F40003B78302BFAD0002B00F0CE8001220B9270
:103F500073E75A46089906F0A3F9002800F0D780C5
:103F60000A954FF0000B5846DC4600230C93002DB9
:103F700000F096800A9A30461346002A08BF2B4666
:103F80000A93FCF727FA02460B46DDF830C0102DE5
:103F90002C46ACEB0B0CA8BF1024092DCDE9042353
:103FA000CDF82CC014DD174B03EBC40353E91223E7
:103FB000FCF722FE0246484690468946FCF70AFA7C
:103FC00002460B4640464946FCF7C8F8CDE90401D5
:103FD0000F2D00F3A5800B9B002B00F00F840B9B93
:103FE00040F38A83162B40F3F4840B9AC5F1250322
:103FF000934280F207850B9B2C1B1C4496E000BF6C
:1040000054BB000818BC00080025DDF86C8008F1DE
:1040100001031B9398F801402B2C00F082822D2C79
:1040200000F01B824FF0000EA4F13003092B00F2C8
:104030000F82302C05D11B9B01331B931C78302C35
:10404000FAD0A4F13103082B8FD81B9AA4F13001C8
:10405000531C1B93547808922F2C09DC00F029BCC8
:104060001C4601331B936478A2F130012F2C05DD2F
:1040700001EB8102392C04EB4202F1DD089A9B1A14
:10408000082B40F3168444F61F630C93BEF1000F17
:104090003FF46DAF0C9B5B420C93002D7FF46AAF35
:1040A0000B9B034320D1BCF1000F7FF432AF692C8E
:1040B00000F01B8400F33983492C00F016844E2C49
:1040C0007FF427AFAA491BA804F046FC00283FF460
:1040D00020AF1B9B1B78282B00F07385A54806F0AA
:1040E0007DF88346894602E04FF0000BD946079AD7
:1040F0000AB11B9B1360099B002B3FF412AF09F11F
:10410000004399465846494621B0BDE8F08F1B9BB5
:104110000A9503EB0B021B9213F80B408346DFE674
:104120000B9B2C1B1C44002C40F3048314F00F0049
:104130000AD0DDE90423904901EBC001D1E9000177
:10414000FCF75AFDCDE9040134F00F0340F08682FC
:10415000002308932B46394650460A9A009605F0EC
:1041600081F91390002800F04E830C9BABEB030108
:104170000B9B002BB4BF0A4600220E9200229346EE
:10418000904623EAE3731293139C5046616805F04E
:10419000E7F80746002800F04081226904F10C018D
:1041A000023292000C30FCF7B1FCDDE904010C4650
:1041B00011911EA901911DA902460A90234650465D
:1041C000009105F0F3FC1C90002800F016810121FD
:1041D000504605F0EDF98046002800F01E811D9B39
:1041E000002BC0F20D810E9A129D9E18089A1E9CFB
:1041F0009B1A2344614A013B9342C4F1360480F286
:10420000AE80D21A1F2A4FF00109A4EB020400F37A
:104210001981002309FA02F90C93089B25443444C0
:10422000A6421D443346A8BF2346AB42A8BF2B4637
:10423000002B02DDE41AED1AF61A0E9B002B00F398
:10424000BC80002C00F3D0800B9B002B00F3DC80A3
:10425000002D00F3ED80002E08DD41463246504629
:1042600005F0DEFA8046002800F0D7803A46504636
:104270001C9905F06BFB8346002800F0CE800026D9
:10428000C3684146C6600F9305F040FBB042C0F2E0
:10429000678400F0CE834146584605F0E9FC0022D1
:1042A0004FF0804304460D46FCF722FF00286DD0F6
:1042B0000F9B002B00F0DD8000223546059B304C23
:1042C00010932F4BCDE90C232E4E109A2E4B02EA61
:1042D0000609994500F0F880089B93B1B9F1D46FB5
:1042E0000FD821A3D3E9002328462146FCF700FF7D
:1042F000002840F084810D9B03F1D663A3EB0903F2
:104300000D93119E0A983146DDE90C23CDE9042373
:1043100005F0C2FB02460B46DDE90401FCF76CFC2C
:1043200033460A9AFBF71AFF0E46CDE90401089BB3
:1043300023B9144B3340994500F0FF8050461C9937
:1043400005F034F83946504605F030F841465046FD
:1043500005F02CF85946504605F028F814E70023DC
:104360004FF001090C9358E70000C0FFFFFFDF4149
:104370006CB8000818BD000818BC000802FCFFFF5C
:104380000000F03F0000F07F0000E07F204629465B
:104390000022AB4BFCF730FC0F9B024605460C4657
:1043A000002B62D101F1004314901593059B1093EB
:1043B000DDE91423CDE90C2386E741461A46504631
:1043C00005F0D2F9804640B301461C9A504605F0EC
:1043D0001DF910B30F901C99504604F0E7FF0F9B96
:1043E000002C1C937FF730AF224650461C9905F0F5
:1043F00017FA1C9000287FF427AF5E460B970FE05A
:10440000129A0E9ED51AF1E639465046129A05F0D8
:10441000ABF9074600287FF41BAF5E460B971C984C
:1044200022234FF0000BDFF81C92CAF80030B3E0F3
:1044300039462A46504605F0F3F9074600287FF42E
:104440000AAFEAE7804AD31A09FA03F30C93E4E6C9
:104450000023CDF86C800C9389E54FF0010E08F134
:1044600002031B9398F80240DEE50B46CDE91423C6
:104470009CE7DDE90412002940F0B080C2F3130389
:104480001092002B40F0B0800022204629466F4B4E
:10449000FCF724FE002840F0AE8220462946684BF7
:1044A0000022FCF7A9FB05460C4601F100431890D9
:1044B0001993DDE91823CDE90C2305E7652C4FF0AE
:1044C000010C3FF4A2AD1DE5A2F154730593DDE9A3
:1044D0000423DDE90C01CDE9040110461946CDE9BC
:1044E0000C2305F0D9FA02460B46DDE90401FCF77E
:1044F00083FBDDE90C23FBF731FE554A0B46CDE982
:1045000004013140914276D9119A524B9A4202D11C
:104510000A9B013381D04FF0FF334E4ACDE904327C
:104520000CE74FF0000E9AE7652C00F0F780452C61
:1045300000F0F4804FF0010CB2E528462146FCF76C
:10454000A9FEFBF793FF0B46024621462846FBF7E0
:1045500003FE0F9C049DC6F3130644EA050C5CEAB7
:10456000060304460D4600F0BE8031A3D3E90023C4
:10457000FCF7B4FD48B930A3D3E90023204629460F
:10458000FCF7CAFD00283FF4D9AEDDE904345E46ED
:10459000A1469B461C980B970146504604F006FF27
:1045A00050460B9904F002FF4146504604F0FEFECF
:1045B0005046139904F0FAFE3146504604F0F6FED8
:1045C00095E5012309937A1C1B927B78002B3FF41D
:1045D000A0AC17462DE400230993F4E7DDE90412AB
:1045E000012900F06E81109200221B4B0025CDE9BD
:1045F0000C23164C68E603F15476059697E621469F
:104600002846FCF7A9FD012838BF0120FBF7E2FE90
:104610000F9B024605460C46002B40F0628101F1DB
:10462000004316901793DDE91623CDE90C2362E6CB
:104630009535A094FFFFDF3F35E5AF350000E03F43
:104640000000E03F0000F07FE2FBFFFF0000F03FD2
:10465000FFFF9F7CFFFFEF7F0000F0BFB3F59A7F65
:1046600000F3D180102B4FEA231440F3C082DDE920
:1046700004010023AC4A99469046089214F0010FB9
:1046800009F101094FEA640404D0D8E90023FCF7DA
:10469000B3FA0123012C08F10808EFD10BB1CDE9E1
:1046A0000401089B03EBC909059BD9E90001A3F1AB
:1046B00054730593DDE90423FCF79EFA9B4B9C4A57
:1046C0000B409342CDE9040100F29D80A2F58012D7
:1046D000934240F222824FF0FF339649CDE90431F4
:1046E0000023089336E58EA3D3E90023FCF7F6FCFC
:1046F00000283FF423AE48E71633FFF611ADDDE99D
:1047000004010C9BABEB030A8B4B03EBCA03D3E90D
:104710000023FCF79BFB83468946E8E400234FF027
:10472000010C9B460A93FFF7F1BB6E2C3FF4CAAC19
:10473000FFF7EFBB3FF40CAD644214F00F020AD058
:10474000DDE904017C4B03EBC203D3E90023FCF752
:104750007DFBCDE9040124113FF4FAAC1F2C35DCBC
:10476000DDE9040114F0100318BF6A230893002345
:10477000DFF8C881E20704D5D8E90023FCF73CFA4A
:104780000123641008F10808F4D10BB1CDE904014C
:10479000089B93B1DDE90401C1F30A52C2F16B0336
:1047A000002B0ADD1F2B40F34C820020342B049099
:1047B00040F352824FF05C7305930022DDE904015F
:1047C0000023FCF781FC00283FF4C4AC22234FF007
:1047D000000BCAF80030D94689E41E9B04931D9B48
:1047E00003F233421F9B23F4801343EA02530593E1
:1047F000200742BF059B43F000430593DDE90434E5
:104800009B46A14673E422234FF0000BDFF81C9176
:10481000CAF800306BE4099B029401931CAB00932F
:104820005046474A1DAB1BA903F0B4FD10F0070525
:1048300004463FF459AC062D40F097804FF0000B32
:10484000079BD9460137002B3FF46BAB1F60FFF786
:1048500068BB6B1C01281A461B9C834415D0284456
:1048600000F1FF3C03E046009C450DD001332A4691
:10487000082A1D4606EB8600F5D9102BDCBF09EB94
:1048800089094FEA4909EFE70232082D5EDC154637
:10489000FFF71EBB5A463846089905F001FD00286F
:1048A00000F08D8000231D4699461E460A93FFF7AF
:1048B00058BB44F61F639942A8BF19460C91FFF7F5
:1048C000E5BBDDE904341094002C7FF48DAE5E4628
:1048D0000B9722234FF0000B1C98D946CAF80030E2
:1048E0005AE60B46CDE916239DE616491BA804F0AF
:1048F00033F800283FF40DAB1B9B1349013B1BA869
:104900001B9304F029F810B91B9B01331B934FF044
:10491000000BDFF81890FFF7EABB00BFAFF3008091
:104920009535A094FFFFCF3FF0BB00080000F07F5B
:104930000000A07CFFFFEF7F18BC000898B80008BB
:1049400070B8000860B8000864B80008102AD8BF22
:1049500009EB890915464FF00000D8BF01EB490962
:10496000FFF7BBBA0020FFF7A5BA1C9A3AB1352170
:104970001EA805F0ADF950461C9904F017FD013D45
:10498000042D3FF635AF01A353F825F0DB470008AF
:10499000B5490008AF490008A1490008DB470008F5
:1049A0004FF0FF336FF00045CDE9043520E7AF4B02
:1049B00005931DE71E9B04931F9B059318E71B9B04
:1049C00006461A465B441B93814612F80B40FFF7DC
:1049D00066BA0B98A649DDE9042301EBC001D1E9D1
:1049E0000001FCF709F983468946FFF780BB83463F
:1049F0000A95FFF775BA00229E4B0F9DCDE918234B
:104A00009D4C56E59A4CC5F10F0504EBC501DDE957
:104A10000423D1E90001FCF7EFF80B9B5D1B04EBCD
:104A2000C504D4E90023FCF7E7F883468946FFF77D
:104A30005EBB0F9B5E46CC460B97DDF828B00C9F03
:104A4000DDF84490002B6FD0DDE904458B4BC5F3B6
:104A5000130199422A463CD0002F00F0AB80DDE9DB
:104A600004231F421C4621D00F9B58464946002B69
:104A700000F0C28005F010F8089D02460B467DB19B
:104A8000C4F30A54C4F16B04002C09DD240504F1BD
:104A90007F53002203F54013FCF7AEF802460B46A5
:104AA00058464946FBF75AFB83468946089B73B133
:104AB00058464946724B0022FCF79EF803460B43CA
:104AC00008BF22238346894608BFCAF800301C98D5
:104AD00062E5089B0499002B00F0BB80634B2B40E0
:104AE000B3F1D46F00F2B5804FF0FF301B0DC3F16E
:104AF0006B0300FA03F39942AED1624B9A4200F085
:104B0000E0805A4B134003F5801305930023049370
:104B1000DDE904349B46A146C8E701F154730593CF
:104B200000230893FFF716BBDDE90412C2F3130359
:104B30000B43144690D1089B002B40F0B7804B4BA1
:104B40002340A3F580136FEA13536FEA03530593D1
:104B50004FF0FF330493DDE904349B46A146A5E7FB
:104B60000F9BDDE904120B4358465E46DDF8449086
:104B7000DDF828B00B9799D1C2F313031446002B2C
:104B800094D122F000431B0D1B05B3F1D66F8DD9D4
:104B9000436913B90369012B88DD31460122504670
:104BA00004F03EFE4146064604F0B0FE00287FF7C2
:104BB0007DAFC0E7DDE904341CEA030F3FF476AFB4
:104BC00052E731491BA81EAA03F0E0FE05287FF436
:104BD00085AA1F9B43F0FF4343F4E00305931E9B0C
:104BE0000493DDE904349B46A146FFF780BA274BC6
:104BF0004FF00009089354E504F04EFF089D02466B
:104C00000B46002D44D0C4F30A54C4F16B04002CAD
:104C100009DD240504F17F530F9A03F54013FBF7D8
:104C2000EBFF02460B4658464946FBF795FA002231
:104C3000002383468946FCF747FA00283FF438AF43
:104C400047E64FF0FF3202FA03F3049A1A40049247
:104C5000B3E54FF0FF334EE74FF0FF33C2F14B02A5
:104C600003FA02F202EA01030593A6E50000F07FD1
:104C700018BC00080000E0BF0000E03FFFFF0F008D
:104C800000005039FFFFEF7F84B80008F0BB000838
:104C900058464946FBF760FA0022002383468946BE
:104CA000FCF712FA00283FF412AF12E6074B23403C
:104CB000B3F1D66F3FF745AFB3F15C7F3FF7F8AE86
:104CC00007E601317FF41DAFFFF7A9BB0000F07FBD
:104CD0002DE9F0410446214F0A46214B2146386810
:104CE000FFF75AF802460B460C460546FCF71EFA3B
:104CF00040BB21462846FCF74FFA20F00048064604
:104D000018494046FCF798FAC8B940461549FBF7E0
:104D1000B9FEA0B924F0004428464FF0FF322146E6
:104D2000114BFCF703FA38B928464FF0FF32214601
:104D30000D4BFCF7DDF910B122223B681A603046BA
:104D4000BDE8F081002C094804DA05F05FFA00F1B3
:104D50000046F4E7BDE8F04105F058BA0C00002029
:104D600040040020FFFF7F7FFFFFEF7F18BD00089A
:104D70002DE9F04FD5B01C469146079105460990A4
:104D800003F0E0FE02680E9410461792FEF7D4FF7F
:104D900016901DB1AB6B002B00F01D82079A536E6D
:104DA000DD0740F12D81B2F90C2091B28F0409D4B6
:104DB000079B42F400529A8191B21A465B6E23F42B
:104DC000005353660E0740F1C080079B1B69002B00
:104DD00000F0BB8001F01A030A2B00F0C48000240D
:104DE0002BAB224698464D46CDE929442893129490
:104DF00000230024CDE914342B78CDE91922CDE924
:104E00001B2218920B92002B00F08F81AA4604E01F
:104E10001AF8013F002B00F0BB80252BF8D1BAEB2C
:104E2000050640F0B9809AF80030002B00F07D8133
:104E300000234FF0FF324FF02B0920241F469AF831
:104E4000016008920AF1010A8DF883300A930AF191
:104E5000010AA6F120035A2B00F2E180DFE813F0EB
:104E60000503DF00DF000003DF00DF00DF00DE02FC
:104E7000DF00DF006A006E02DF0055027802DF000B
:104E800073025B005B005B005B005B005B005B0030
:104E90005B005B00DF00DF00DF00DF00DF00DF0022
:104EA000DF006C01DF00EA01C4016C016C016C01E0
:104EB000DF00DF00DF00DF00D002DF00DF002302C1
:104EC000DF00DF00DF00F801DF009202DF00DF001B
:104ED0008707DF00DF00DF00DF00DF00DF00DF002B
:104EE000DF006C01DF00EA01C6016C016C016C019E
:104EF000B602C601BF01DF00C302DF005A0225026D
:104F0000A402BF01DF00F80172008407DF00DF00A8
:104F10006507DF0072000022A6F130031AF8016B6A
:104F200002EB820203EB4202A6F13003092BF5D912
:104F30000A928EE70E9B53F8042B002A0A920E93D6
:104F4000C0F2E0819AF8006081E7079D0998294640
:104F500001F0FCFC002841F04D83A98901F01A03FF
:104F60000A2B7FF43CAF079AB2F90E30002BFFF604
:104F700036AF536ED80702D4890541F148812346E4
:104F80004A460799099855B0BDE8F04F01F09CBC1E
:104F9000BAEB050600F0C9802A9BC8E900563344E5
:104FA0002A93299B0133072B299305DC08F1080874
:104FB0000B9B33440B9336E70799099828AA05F011
:104FC0001DFA80B90DF1AC08F2E70799099828AAF3
:104FD00005F014FA002800F099800D9B1BB11946CA
:104FE000099802F0E9FE079A536ED90740F1E8806C
:104FF00093895B0601F10A830B9855B0BDE8F08FE9
:10500000079BB3F90C20900591B23FF5CFAE1D463A
:10501000986D03F09FFDB5F90C2091B2C6E6002E05
:1050200000F08380012300228DF8EC6006933BADF5
:105030008DF883200C930D9208920F921392109288
:1050400017F0020302D006990231069117F0840B83
:1050500007D10A990698A1EB0009B9F1000F00F3F6
:1050600090832A9C82B10122C8F80420299A013435
:1050700001320DF18301072A2A942992C8F8001001
:1050800000F3D88308F108087BB10223C8F8043084
:10509000299B0234013321AA072B2A942993C8F8AB
:1050A000002000F3D58308F10808BBF1800F00F061
:1050B0008882089B0C9AA3EB020BBBF1000F00F354
:1050C000CB82FB0500F11F820C9BC8F800501C44EA
:1050D000C8F80430299B2A940133072B299300F345
:1050E000448308F10808780705D50A9B069A9D1A9B
:1050F000002D00F3B983DDE90A2306998A42ACBF8B
:105100009B185B180B93002C7FF45FAF002329934F
:105110000D9B1BB10D99099802F04EFE55460DF1FD
:10512000AC082B78002B7FF471AE2A9B002B41F04A
:1051300010820023299356E70E9B073323F00702C2
:10514000F2E80234CDE91434DDE9143424F00044EB
:10515000994618460E9221464FF0FF32AB4BFBF7B3
:10516000E5FF002840F01885484621464FF0FF3201
:10517000A64BFBF7BDFF002840F00E85DDE91401CA
:1051800000220023FBF7AAFF002840F065879DF866
:105190008320002103209E4D9E4B27F080070D9118
:1051A0000690472EC8BF1D4608910C900F91139191
:1051B0001091002A3FF444AF069B013306933FE76A
:1051C000079B9B899A053FF514AF079CA06D03F0E0
:1051D000C3FCA3890DE7099802F0F6FCDEE59AF816
:1051E000006047F0200732E647F01007BA060E9B32
:1051F00040F16E84073323F007031A465B6852F8C8
:10520000084B99460E92002BC0F26F84089B013325
:1052100000F0FB8254EA090327F0800B40F0F6828D
:10522000089B002B40F0F7825F46002354AD0893A3
:105230000C933DE1012000220E9B069053F8041BC5
:105240003BAD8DF883208DF8EC100E930C90F2E6B8
:105250004FF000090E9C089B54F8045B8DF8839076
:10526000002D00F0A1855A1C00F0A5861A4649467B
:10527000284603F0A5FF0D90002801F050810D9BFA
:105280009DF883205B1B0C9323EAE373CDF82090F9
:105290000E940693CDF83490CDF83C90CDF84C9018
:1052A000CDF8409085E747F0100717F0200900F08F
:1052B000F2830E9B073323F00703D3F8049053F8CF
:1052C000084B0E93002327F4806B00228DF8832077
:1052D000089A511C00F0D48054EA09012BF0800791
:1052E00040F0CD80002A40F00486002B9DD11BF0B9
:1052F00001030C9300F0308430230DF24F158DF82C
:105300004F31D5E00A9B5B420A939AF8006047F060
:1053100004079CE5BD0600F1FD84FC0600F1EE8566
:10532000780600F1B286B90540F1E8850E9B0B992D
:1053300053F8042B554611700E93F2E69AF800606C
:105340008DF8839083E59AF8006047F080077EE54A
:10535000524612F8016B2A2E01F08D82A6F130031D
:10536000092B924698BF002201F2E5801AF8016BE2
:1053700002EB820203EB4202A6F13003092BF5D9BE
:10538000089266E547F0100B1BF0200900F09183AE
:105390000E9B073323F007031A4652F8084BD3F845
:1053A00004900E92012390E7302278260E9B8DF810
:1053B000842053F8044B184A0E934FF0000902233F
:1053C00047F0020B8DF8856018927EE79AF800602E
:1053D000682E03BF9AF8016047F400770AF1010ACA
:1053E00047F0400733E59AF800606C2E03BF9AF847
:1053F000016047F020070AF1010A47F0100726E58F
:105400009AF8006047F0080721E500BFFFFFEF7F33
:10541000C0B80008C4B80008D0B80008099E3046DB
:1054200003F090FB436818461B93FEF785FC034688
:1054300030461C931E4603F085FB83681993002EAB
:105440003FF480AD199B002B3FF47CAD199B1B787A
:10545000002B3FF477AD9AF8006047F48067F6E4DC
:105460009AF8006047F00107F1E49DF88330002BC3
:105470007FF468AD9AF800608DF88340E7E4BB469E
:10548000012B00F0C381022B54AD1FD1189A04F0F8
:105490000F03D35C240944EA09744FEA191905F88B
:1054A000013D54EA0903F2D15F4654AB5B1B0C93F8
:1054B000089A0C9900238A42B8BF0A460D930692B7
:1054C0000F939DF883201393109372E604F0070363
:1054D000E40844EA49744FEAD909303354EA09012F
:1054E0002A4605F8013DF1D11BF0010FDCD0302B2D
:1054F000DAD03023023A05F8013C54AB9B1A5F46E0
:1055000015460C93D4E7652E40F3E980DDE91401DC
:1055100000220023FBF7D8FD002800F0E1810123E1
:10552000C8F80430299BC04A01330134072B2A9460
:105530002993C8F8002000F3BF8408F10808229BD3
:10554000129A934280F2DC82169B179A1C44C8E997
:105550000023299B2A940133072B299300F31784F6
:1055600008F10808129B5D1E002D7FF7BCAD102DC1
:1055700041F35D81DFF8B492224649461026B946D0
:10558000299B0F46DDF824B0079C05E008F10808C8
:10559000103D102D40F39D8401331032072BC8E9D4
:1055A0000076CDE92932F1DD2146584628AA04F0DB
:1055B00025FF00287FF411ADDDE929320DF1AC089B
:1055C000E6E70A9B069AA3EB020BBBF1000F7FF7FD
:1055D00070ADBBF1100F41F35280DFF8509241469D
:1055E0002046A8464C461023299A079DDDF82490B2
:1055F00006E0ABF1100BBBF1100F01F1080119DD52
:1056000001321030072AC1E90043CDE92920F0DD3D
:105610002946484628AA04F0F1FE00287FF4DDACB4
:10562000DDE92920ABF1100BBBF1100F4FF0100397
:105630002BA9E5DC4546A1468846044601325C4478
:10564000072ACDE92924C8F80090C8F804B000F36F
:10565000918308F108082CE5BBF1100F40F3E384B7
:10566000DFF8C89141462046A8464C461023299AA7
:10567000079DDDF8249006E0ABF1100BBBF1100F95
:1056800001F1080119DD01321030072AC1E9004398
:10569000CDE92920F0DD2946484628AA04F0AEFECF
:1056A00000287FF49AACDDE92920ABF1100BBBF1A7
:1056B000100F4FF010032BA9E5DC4546A1468846A4
:1056C000044601325C44072ACDE92924C8F8009039
:1056D000C8F804B000F3D28108F10808F1E4129B85
:1056E000012B40F382810123299E01341E44072EA1
:1056F000C8F800502A94C8F80430299600F36C8347
:1057000008F10808169B0136179A1C44072EC8E9B1
:105710000023CDE9296400F36C8308F10808002216
:10572000DDE914010023FBF7CFFC002840F07A816B
:10573000129B0136013B01351C44072EC8F800506E
:105740002996C8F804302A9400F35F8108F108080C
:105750001A9B01361C44C8F80430072E24ABCDE94F
:105760002964C8F800307FF7BCAC0799099828AACB
:1057700004F044FE00287FF430AC2A9C0DF1AC0804
:10578000B1E4B9F1100F40F3C686DDE929214046A6
:10579000CDE91D36B84610244F46079EA946099DFF
:1057A00004E0103F102F00F1080016DD0132204BFD
:1057B0001031072AC0E90034CDE92921F1DD314655
:1057C000284628AA04F01AFE00287FF406ACDDE97A
:1057D0002921103F102F2BA8E8DC4D46DDE91D36AE
:1057E000B9464746804609EB010401321049072AB1
:1057F000CDE92924C8F80490C8F8001000F34083CC
:105800009DF8832008F108082CE4BB460A2C79F1A6
:10581000000380F0FB82012330345F468DF84F4156
:105820000C930DF24F1543E600B9000814B90008B7
:1058300004B900080799099828AA1D9304F0DEFD11
:1058400000287FF4CAAB2A9C1D9B0DF1AC081BE419
:105850000799099828AA04F0D1FD00287FF4BDAB70
:105860002A9C0DF1AC0820E4102D40F3BE861026D2
:10587000299B099FDDF81C9004E0103D102D08F1D4
:10588000080817DD0133BA4A1034072BC8E900268F
:10589000CDE92934F1DD4946384628AA04F0AEFDA9
:1058A00000287FF49AABDDE92934103D102D0DF16D
:1058B000AC08E7DC0133AE4A2C44072BCDE9293490
:1058C000C8F80450C8F800207FF715AC079909986C
:1058D00028AA04F093FD00287FF47FAB2A9C0AE4F9
:1058E0002299002940F31081DDF84090129B9945E0
:1058F000A8BF9946B9F1000F0BDD299B4C44013339
:10590000072BC8E900592A94299300F3818508F1EF
:105910000808109EB9F1000FA8BFA6EB0906002EDB
:1059200000F3F582DDF840B07905AB4400F1AC84BA
:10593000229B129A934202DBFA0740F19283169A55
:1059400017991444C8E90012299A2A940132072AA7
:10595000299200F3A88508F10808129AAE18A6EB60
:105960000B06D51AAE42A8BF2E46002E0DDD299B90
:1059700034440133072BC8F800B0C8F804602A94F7
:10598000299300F3FC8508F10808002EA8BFAD1B81
:10599000002D7FF7A8AB102D40F34987DFF8D49195
:1059A000224649461026B946299B0F46DDF824B009
:1059B000079C05E008F10808103D102D40F389828E
:1059C00001331032072BC8E90076CDE92932F1DD29
:1059D0002146584628AA04F011FD00287FF4FDAAAC
:1059E000DDE929320DF1AC08E6E7FE073FF57BAEB5
:1059F0000123299E01341E44072EC8F800502A9422
:105A0000C8F8043029967FF7A1AE0799099828AA0B
:105A100004F0F4FC00287FF4E0AADDE929640DF12C
:105A2000AC0895E6129B5D1E002D7FF791AE102D00
:105A300040F31987224608974FF0100BDFF8349196
:105A4000099C079F05E008F10808103D102D40F360
:105A5000C78201361032072EC8E9009BCDE92962C2
:105A6000F1DD3946204628AA04F0C8FC00287FF45E
:105A7000B4AADDE929620DF1AC08E6E707990998B7
:105A800028AA04F0BBFC00287FF4A7AA2A9C0DF1E9
:105A9000AC08FFF716BB17F0100377D117F04002E0
:105AA00000F0AC820E9A994652F8044B0E92A4B2C2
:105AB00008E41BF010030E9A54D11BF040014DD0A6
:105AC00052F8044B99460E920123A4B2FFF7FDBB96
:105AD00053F8044B0E93FB0653D47D064ED544F386
:105AE000C0394B4624B2FFF78EBB2D2364428DF89C
:105AF0008330BB464FF0010369EB4909FFF7E8BB70
:105B0000F8077FF5F0AA1FE50123C8F80430299BA8
:105B1000194A01330134072B2A942993C8F800202D
:105B200000F3688408F10808002940F02582129AE1
:105B300007F0010313433FF4D6AA169B1799E21806
:105B4000C8E90013299B2A920133072B299300F3FC
:105B5000508308F1080820E254ADA9E41BF4007951
:105B600040F0A08252F8044B01230E92FFF7ADBB28
:105B700004B9000814B9000800B90008B80500F11C
:105B800079824FEAE4794B46FFF73DBB0E9B53F811
:105B9000044B0E93FFF796BBDDE9140102460B465A
:105BA000FBF7C4FA002840F0F785612E00F06C8501
:105BB000412E00F07F82089B013300F0948526F08F
:105BC0002003472B069300F07B85DDE9141247F490
:105BD00080730F931346002BC0F2F4850C930023BF
:105BE0008B461D930D93069B462B00F02B84452B73
:105BF00000F0148508990C9B01910221009126A9BF
:105C0000049123A9039122A95A460998029100F010
:105C1000AFFF069B0546472B40F0448617F0010F67
:105C2000B9460F9F40F0F784269B5B1B1293069B9F
:105C3000472B00F0F182069B462B00F04284229B0A
:105C40001093109B069A013B412A229300F08A850B
:105C50000021F2B2002B8DF89020B6BF2D222B220E
:105C6000109B8DF89120B8BFC3F10103092B40F3BD
:105C700081850DF19F0C6246BA4F1C46104687FB8A
:105C80000312D917C1EBA20101EB8102A3EB42027F
:105C90003032632C00F8012C0B4600F1FF32ECDCB3
:105CA0003033811EDBB28C4502F8013C40F2FF85A7
:105CB0000DF1920101E012F8013B944501F8013B1E
:105CC000F9D10DF1A1030DF192021B1A134424AA7C
:105CD0009B1A1A93129B1A9A012B1A440C9240F3A6
:105CE0009E850C9B169A13440C9300230C9A29F45E
:105CF000806722EAE27247F480770F93069213934B
:105D000010931D9B002B40F0B0829DF883200893D8
:105D1000FFF74FBA0E9B0B9853F8041BC21755465A
:105D2000C1E900020E93FFF7FCB98F4B189317F0EF
:105D3000200949D00E9B073323F00703D3F80490C2
:105D400053F8084B0E93F80709D554EA090306D017
:105D500030238DF8856047F002078DF884300223E8
:105D600027F4806BFFF7B1BABB46FFF70DBB7F4B43
:105D70001893DCE70799099828AA04F03FFB00284C
:105D80007FF42BA92A9C0DF1AC08FFF792B9079973
:105D9000099828AA04F032FB00287FF41EA92A9C47
:105DA0000DF1AC08FFF7DEBB062B294628BF062302
:105DB0002A4608950D9506936D4D0E940C930F9100
:105DC00013911091FFF7F5B917F0100369D00E9BEE
:105DD00053F8044B0E93B6E70799099828AA04F0E4
:105DE0000DFB00287FF4F9A8DDE929640DF1AC086A
:105DF00088E40799099828AA04F000FB00287FF49A
:105E0000ECA8DDE929640DF1AC0888E400230BF46B
:105E10008062CDE90CA8069692461E46DDF86480A5
:105E200054AF0CE00023204649460A22FBF71AFA39
:105E30000A2C79F100031BD3044689462F462046DD
:105E40000A2200234946FBF70DFA30327D1E013647
:105E500007F8012CBAF1000FE4D098F800309E4208
:105E6000E0D1FF2EDED00A2C79F1000380F0E08033
:105E7000CDF864801296DDE90CA8069EFFF714BBEE
:105E80000799099828AA1D9304F0B8FA00287FF40E
:105E9000A4A89DF883202A9C1D9B0DF1AC08FFF758
:105EA000E1B817F0400200F0B4800E9A994652F81B
:105EB000044B0E92A4B246E70799099828AA04F069
:105EC0009DFA00287FF489A82A9C0DF1AC08FFF701
:105ED00036BB14463A464F46914601332C44072BB5
:105EE000C8F80090C8F80450CDE929347FF7F9A824
:105EF0003BE4012BBB467FF4C6AA8CE40E9B0B99B6
:105F000053F8042B554611600E93FFF70AB9102E73
:105F100040F3AD84DFF85C90424648462146A846EF
:105F2000B9464FF0100B0746299B099C079D04E0DA
:105F30000832103E102E40F3488201331031072BF7
:105F4000C2E9007BCDE92931F2DD2946204628AAA5
:105F500004F054FA00287FF440A8DDE929312BAA87
:105F6000E7E700BF67666666D0B80008E4B80008D7
:105F7000F8B8000814B90008169B1798E218C8E989
:105F80000003299B2A920133072B299300F33181C7
:105F900008F108080029C0F20283129901338C1815
:105FA000072BCDE92934C8F80050C8F804107FF752
:105FB00098A8FFF7DABB2846CDF820900E94FDF79D
:105FC000BBFE20EAE073CDE90C099DF88320CDF8F3
:105FD0003C90CDF84C90CDF840900693FFF7E9B88F
:105FE0001446089F01362C44072ECDE92964C8F8D1
:105FF0000090C8F804507FF7A9AB06E517F40079C4
:106000000E9B3DD053F8044B91460E93E4B2FFF73C
:1060100059B917F400790E9B40D053F8044B9146C0
:106020000E93E4B28FE6299ADFF84C92FFF749BB52
:106030001C9B1B99ED1A1A46284604F06FF998F834
:1060400001300BB108F10108204649460A2200231D
:106050000026FBF707F9EFE62D228DF88320FFF7E6
:1060600098B8129AAE18A6EB0B06D51AAE42A8BF86
:106070002E468AE444F3C0194B4664B2FFF7C3B816
:1060800053F8044B0E93FFF71DB90E9B0B9953F871
:10609000042B554611800E93FFF743B853F8044B79
:1060A0000E9350E652F8044B894601230E92E4B257
:1060B000FFF70BB930238DF8843058238DF88530E5
:1060C000089B47F00204632B00F3E38200233BADFF
:1060D0000D9347F481730F93DDE914121346002BDF
:1060E0002746C0F240820C9300238B461D9326F076
:1060F00020030693612E00F01783412E7FF473ADC9
:1061000022AA58460C9904F031F800224FF07F5330
:10611000FAF772FD02460B46CDE910230022002358
:10612000FAF7D2FF08B101232293544B0C93089B3A
:10613000CDE912A6CDE91E78DDE91067AB46DDF8A2
:1061400030A003F1FF39109506E00022002309F189
:10615000FF39FAF7B9FFE8B90022494B3046394612
:10616000FAF74AFD0F460646FAF7AEF90446FAF783
:1061700041F90B46024639463046F9F7EDFF1AF869
:106180000430B9F1FF3FD8464D4606460F460BF89E
:10619000013BDAD13046394600223A4BA946DDF8B8
:1061A00048A0109DCDF84880CDE91001DDF87C8035
:1061B000139E1E9FFAF7B0FF002840F04482DDE9ED
:1061C000100100222F4BFAF77FFF10B1E10700F119
:1061D0003A824B46002B06DB302201335B440BF83E
:1061E000012B5B45FBD1ABEB0503B94612930F9F27
:1061F0001DE50799099828AA04F000F900287EF403
:10620000ECAEDDE9293222990DF1AC08C2E6906DC1
:1062100002F0A2FCFEF7B3BE229BDA1C109302DB55
:10622000089A934204DD023E26F02003069308E517
:10623000109B129A9342C0F2828119F0010F00F074
:10624000A882169A13440C9319F4806F00F0908280
:10625000109B6726002B00F346810C9B23EAE37317
:10626000069300230F9313934BE52D2200238DF803
:1062700083200893FEF7A0BF14B90008E4B8000813
:10628000000030400000E03F129B4246DDF84C80A9
:10629000EB185E460893CDF830A010972146199F61
:1062A000DDF87090DDF824A0DDF81CB00F9B13958D
:1062B000B8F1000F2ED0002B6CD1013F08F1FF3850
:1062C0001B9B4944C2E90039299B2A910133072BC2
:1062D000299363DC0832089B38789B1B8342A8BF54
:1062E0000346002B1C460ADD299819440130072873
:1062F000C2E900632A9129905BDC38780832002CCF
:10630000B4BF0546051B002D15DC06440F9BB8F1F4
:10631000000FD0D1002B3DD1DDE91235EB189E42A4
:10632000B346199790460C4628BF9B46DDF830A02F
:10633000109FFFF7FDBA102D40F36F8210242998AB
:1063400004E0103D102D02F1080216DD0130A84BCB
:1063500010310728C2E90034CDE92901F1DD5946A1
:10636000504628AA04F04AF800287EF436AEDDE94B
:106370002901103D102D2BAAE8DC01309C4B29444B
:106380000728CDE92901556013604EDC38780832C2
:106390000644BBE70F9B013B0F9391E759465046DC
:1063A00028AA04F02BF800287EF417AE2A992BAA0D
:1063B00091E75946504628AA04F020F800287EF4B8
:1063C0000CAE38782A992BAA99E7454690463A466A
:1063D0000C464F46914601333444072BCDE929340E
:1063E000C8F80090C8F8046000F35D8108F108085F
:1063F000FFF798BA0799099828AA03F0FFFF002829
:106400007EF4EBAD22992A9C0DF1AC08FFF78CBB12
:106410000799099828AA03F0F1FF00287EF4DDAD62
:106420002A9C0DF1AC08FFF774BA5946504628AAC9
:1064300003F0E4FF00287EF4D0AD38782A992BAA27
:10644000064463E708990C9B01910321009126A95A
:10645000049123A9039122A95A460998029100F0B8
:1064600087FB03780546302B00F0C081229B089AF9
:10647000B94613440F9FEC185846002200230C998C
:10648000FAF722FE10B12346FFF7CFBB269BA342AB
:10649000BFF4CBAB30215A1C26921970269B9C422C
:1064A000F9D8FFF7C2BB0799099828AA03F0A6FFFD
:1064B00000287EF492AD229B2A9C0DF1AC08FFF7D8
:1064C0004CBA229A002A109240F3B981089909F037
:1064D00001030B4340F040816626109B0C9319F496
:1064E000806F3FF4BAAE19990B78FF2B00F0D6817C
:1064F0000024109A204604E001300131FF2B00F007
:106500006481934280F26181D21A4B78002BF3D1DF
:106510000B780134F2E7DDE92921FFF764B9089B24
:106520009DF883200E9406930C9308900F9013907F
:106530001090FEF73EBE00230893FEF78ABC129B24
:10654000169A9A18109B0C92002B40F35D816726D7
:10655000C5E70799099828AA03F050FF00283EF4E0
:10656000E8ADFEF740BD26F0200306932D22DDE9BD
:1065700014349B4604F100431D920C93BAE507992D
:10658000099828AA03F03AFF00287EF426AD229D40
:10659000129B2A9C0DF1AC085D1BFFF7F6B94E4229
:1065A000103180F2818141461024A846DFF84090E6
:1065B000DDF824B0079D04E00831103E102E40F3B2
:1065C000998001331032072BC1E90094CDE92932BB
:1065D000F2DD2946584628AA03F010FF00287EF471
:1065E000FCACDDE929322BA9E7E7299BFFF762B96B
:1065F00014B90008079B5B6EDD0707D4079B9B89D6
:106600009C0503D4079B986D02F0A6FA4FF0FF3368
:106610000B93FEF7F1BC089BEC182DE702210091CB
:1066200008995A464C1C26A9049123A9039122A932
:106630000C9B09980194029100F09AFA0546B9461C
:106640002C440F9F18E7129B26930C9B1BF8012CE0
:10665000D97B5B468A4209D1302003F8010C269B86
:106660005A1E269213F8012C9142F6D0392A0BBFFC
:106670000C9A0132927AD2B203F8012CB3E5299A2E
:10668000DFF83492FEF7DABF30238DF884307823B8
:1066900014E50998591C02F0D1FA0546002800F0CB
:1066A000F6800D9015E50799099828AA03F0A6FE33
:1066B00000287EF492AC2A9C0DF1AC08FFF732B9A9
:1066C000089B002B08BF0123089347F480730F93A6
:1066D000159B002BC0F2A980DDF850B01D900C93E3
:1066E0000D90FFF787BA0623089326F02003069340
:1066F000FFF76BBA4546884601333244072BCDE994
:106700002932C8F80090C8F804607FF722AA0799D8
:10671000099828AA03F072FE00287EF45EACDDE939
:1067200029320DF1AC0838E422AA58460C9903F03E
:106730001DFD00224FF07F53FAF75EFA02460B462A
:10674000CDE9102300220023FAF7BEFC08B1012393
:1067500022935A4B0C93EAE4169B6626D3181944ED
:106760000C91BCE606F10F020121D2B2FFF772BA1A
:10677000672672E500295FD130228DF892200DF155
:106780009302303302F8013B24ABD31A1A93FFF77C
:10679000A1BA109B0C9357E5159B0320002BB8BFA3
:1067A0002D224FF00003A8BF9DF8832019460D93BA
:1067B000434D444BB8BF8DF8832027F080070690E7
:1067C000FEF7EFBC00230D93D0E6199110921390C1
:1067D0000F940F9A139B1C9913440C9A01FB0323EB
:1067E0000C9323EAE3730693FFF78BBA5846002213
:1067F00000230C99FAF768FC00287FF437AE089B59
:10680000C3F10103229332E6C3F101031A4422EAE1
:10681000E27367260C92069323E52998ADE519F0FB
:10682000010F3FF462AAFFF75CBA0D909EE6299B28
:10683000DFF88490FFF751BB0DF19202A1E7089AAF
:1068400009F0010959EA020304D1012366260693DF
:106850000C9306E5169B662601331A4422EAE2737E
:106860000C920693FDE4DFF85090FFF7BBBB299B29
:10687000DFF84490AFE50E9B9AF80160924653F81A
:10688000042B0E9342EAE2730893FEF7E0BA079AEC
:10689000938943F040039381FEF7A5BB00230F9338
:1068A000139396E7089CCAE6DFF80C9024E70223CE
:1068B0001A93FFF70FBA00BF14B90008D0B8000848
:1068C000C8B80008CCB80008F0B54FF4806C154685
:1068D000002406461F46ADF26C4D1AAB009304939C
:1068E0008B8916A823F00203ADF80C304B6E06948A
:1068F0001993CB890C46ADF80E30CB69CDF808C0A2
:1069000007934B6ACDF814C0099302F01FF92A4689
:106910003B4669463046FEF72BFA051E07DB694603
:10692000304601F01DF9002818BF4FF0FF35BDF8C3
:106930000C305B0603D5A38943F04003A38116986E
:1069400002F006F928460DF26C4DF0BD38B5334B18
:1069500005461B680C460BB19A6B12B3B4F90C30A8
:1069600018079AB225D5216900292DD012F001000F
:1069700007D000256069A5604042A06139B10020C0
:1069800038BD950758BF6069A0600029F7D112068D
:1069900058BF0846F4D543F040034FF0FF30A381C1
:1069A00038BD184601F010F9B4F90C3018079AB246
:1069B000D9D4D1062AD5520714D4216943F008034B
:1069C000A3819AB20029D1D102F42070B0F5007FE2
:1069D000CCD02146284602F0C1F8B4F90C30216928
:1069E0009AB2C3E7216B51B104F14002914204D045
:1069F000284601F0E1F9B4F90C30002222630022AC
:106A0000216923F02403C4E90012D7E7092243F0E7
:106A100040032A604FF0FF30A38138BD0C000020F6
:106A2000024B13B1024800F005B8704700000000A7
:106A3000ED7C0008002301461A46184604F01ABCF3
:106A40002DE9F04F03690C6985B0A342C0F289803B
:106A5000013C01F11405A30000F11408019355F85D
:106A6000243058F8242001338A469A4208EB8401E6
:106A70008146B2FBF3F605EB840702913AD300217D
:106A8000AE4640460A46A34603955EF8045B04689A
:106A9000ABB206FB03132D0C190C06FB05119BB2C0
:106AA000D21A1FFA84FC94448AB2C2EB144202EB5D
:106AB0002C421FFA8CFC4CEA0243774540F8043B19
:106AC0004FEA11414FEA2242DFD2019B5C4658F85F
:106AD0000330039D73B9029B043B984504D307E040
:106AE000984504F1FF3403D253F80429002AF7D063
:106AF000C9F810405146484602F008FF00282CDB38
:106B000040460023013655F8041BD0F800C08AB275
:106B10009A1A1FFA8CFE0B0C7244C3EB1C4303EB56
:106B2000224392B242EA0342AF4240F8042B4FEABA
:106B30002343E8D258F8242008EB84036AB9043BC5
:106B4000984504D307E0984504F1FF3403D253F885
:106B50000429002AF7D0C9F81040304605B0BDE836
:106B6000F08F002005B0BDE8F08F00BF00000000EE
:106B70002DE9F04F90469946016C99B00446CDE955
:106B80000489259D41B10123426C93408B604A608A
:106B900002F00CFC00232364B9F1000AB4BF012306
:106BA00000232B60764BBCBF2AF0004ACDF814A01E
:106BB00033EA0A0300F0AA80DDE9042310461946EF
:106BC00000220023CDE90A01FAF77EFA074670B1E8
:106BD0000123249A1360269B002B00F0E68269486B
:106BE0001860431E0393039819B0BDE8F08F16ABED
:106BF000019317AB00932046DDE90A2302F0D6FF8C
:106C00005FEA1A56054640F09780DDE916763E4465
:106C100006F23240202840F3B783C0F140000AFA60
:106C200000FA06F2124028FA00F04AEA0000F9F7EA
:106C3000D1FB0123013E0F93A1F1F8710022524BC9
:106C4000F9F78AFA48A3D3E90023F9F7D5FF48A357
:106C5000D3E90023F9F782FA804630468946F9F7EE
:106C6000C9FB45A3D3E90023F9F7C6FF02460B464B
:106C700040464946F9F772FA80468946F9F724FCFE
:106C800000228346002340464946FAF727FA0028A7
:106C900040F07E82BBF1160F00F26D82DDE90A0141
:106CA0003A4B03EBCB03D3E90023FAF717FA00289A
:106CB00072D00023BE1B0E93731E0BF1FF3B069395
:106CC00000F1608200230993BBF1000F6BDA099B8E
:106CD000CDF81CB0A3EB0B030993CBF100030D938C
:106CE000229B4FF0000B092B66D8052B40F34A83FB
:106CF0000026043B2293229B023B032B00F26C866E
:106D0000DFE813F061045E045504380442F20F73A7
:106D1000249ACAF3130A13605AEA08031AD1269B6D
:106D2000002B00F068861A4B03930833269A0398C9
:106D3000136019B0BDE8F08FDDE90A12C2F3130346
:106D4000084643F07F510F97A6F2FF36169F41F495
:106D5000401173E7269B002B40F0EF830D4B03930C
:106D600041E700BFAFF3008061436F63A787D23F65
:106D7000B3C8608B288AC63FFB799F501344D33F2A
:106D80000000F07F01B900080000F83F18BC0008BF
:106D900028B9000824B90008BE1B731E069300F131
:106DA0008A840E900990069B5B44CDE9063B002344
:106DB0000D93229B092B98D9002322934FF0FF3388
:106DC0000126089300230C9623930021089B6164FD
:106DD0001293204602F0C4FA0390002800F00486C3
:106DE000039B2364089B0E2B00F21481002E00F0FD
:106DF00011810799002940F36084AF4B01F00F0225
:106E000003EBC2030A46D3E900674FEA2118D10514
:106E100040F11784DDE90A01A84B4FF0030AD3E9DA
:106E20000823FAF713F8CDE9100108F00F08B8F1BC
:106E3000000F13D0DFF8849218F0010F09D0D9E9C0
:106E4000002330463946F9F7D7FE06460F460AF1C9
:106E5000010A5FEA680809F10809EDD1DDE91001CE
:106E600032463B46F9F7F2FF804689460E9B43B116
:106E7000002240464946924BFAF730F9002840F08C
:106E800035855046F9F7B6FA42464B46F9F7B4FE57
:106E90008C4B0022F9F762F9A1F15073CDE9100192
:106EA0001193089B002B00F09780079B1493089B7D
:106EB00013930C9B002B00F0A984139A7E4B0020A7
:106EC00003EBC20353E902237F49F9F7BFFFDDE972
:106ED0001023F9F741F9CDE9100149464046F9F789
:106EE000F3FA0746F9F786FA02460B46404649464A
:106EF000F9F732F9DDE91023039E303706F8017BFC
:106F000080468946FAF7EAF8002840F02E85CDF849
:106F100054B00027DDE910AB1095139D13942AE0BF
:106F20000137AF4280F22E85504659460022674B0A
:106F3000F9F762FE0022654B82468B464046494681
:106F4000F9F75AFE89468046F9F7BEFA0446F9F782
:106F500051FA02460B4640464946F9F7FDF83034EF
:106F600052465B4606F8014B80468946FAF7B6F86A
:106F7000002840F0F88442464B4600205049F9F77B
:106F8000EBF852465B46FAF7A9F80028C8D0DDE9CD
:106F90001343109D039A079302E0964200F0CD84BC
:106FA000B24616F8013D392BF7D00133DBB233700E
:106FB000079B01330793C8E15046F9F71BFA424695
:106FC0004B46F9F719FE3F4B0022F9F7C7F8A1F13C
:106FD0005073CDE9100111934046494600223C4BC5
:106FE000F9F7BAF8DDE910894B46424606460F46E6
:106FF000FAF792F88146002840F0AF84DDE91001ED
:10700000024601F1004330463946FAF767F8002896
:1070100040F04883179B002BC0F28C80079A0E2A01
:1070200000F38880244B03EBC203D3E900AB239B1E
:10703000002B1BDA089B002B18DC40F03183002268
:10704000234B50465946F9F7D7FD02460B46DDE97A
:107050000A01FAF74DF8DDF820904E46002800F0BE
:10706000CA82239BDDF80C80DF43CCE25246DDE987
:107070000A785B4638464146F9F7E8FEF9F724FA04
:1070800081460990F9F7B6F952465B46F9F7B4FD27
:10709000039E0B46024641463846F9F75DF809F172
:1070A000300306F8013B089B012B00F05F83069438
:1070B00001271C4604952AE018BC0008F0BB000814
:1070C0000000F03F00001C400000E03F00002440B2
:1070D0000000144052465B4640464946F9F7B6FE6A
:1070E000F9F7F2F90546F9F785F952465B46F9F7E3
:1070F00083FD01370B46024649464046F9F72CF816
:1071000005F13003A74206F8013B00F02C83002272
:10711000AB4BF9F771FD0022002380468946F9F751
:10712000D3FF0028D6D0049D069C079BB2460133AE
:1071300007930AE10C9A002A3DD0229A012A40F3D3
:107140009F82089B03F1FF380D9B4345C0F270827C
:10715000A3EB0808089B002BC0F24083069A1A4450
:107160000692099A17461A4409920121204602F014
:107170001FFA064623E00123BE1B0E93731E0693DF
:107180007FF5A0ADC6F101030993002306939BE5AB
:107190005846F9F72FF942464B46F9F795FF002874
:1071A0007FF478AD0BF1FF3B74E5864B03930398B6
:1071B00019B0BDE8F08FDDF83480099F0C9E002FD8
:1071C0000CDD069900290B4608DDB942A8BF3B46F5
:1071D000099AFF1AD21ACB1A099206930D9BE3B1B2
:1071E0000C9B002B00F06082B8F1000F10DD3146DF
:1071F0004246204602F0B8FA06462A463146204664
:1072000002F004FA0346294620461D4602F0CEF855
:107210000D9BB3EB080240F0DB820121204602F017
:10722000C7F9BBF1000F814600F3B380229B012B0D
:1072300040F388814FF0000A0120BBF1000F40F0BD
:10724000B480069A104410F01F0000F09280C0F144
:107250002003042B40F3D383099BC0F11C0003449B
:107260000244099307440692099B002B05DD294639
:107270001A46204602F0D4FA0546069B002B05DD8F
:1072800049461A46204602F0CBFA81460E9B002B57
:1072900040F03881089B002B40F31E810C9B002B93
:1072A00040F09F80079B013307930127DDF80C8096
:1072B000DDF820A007E0294600230A22204602F03C
:1072C0007FF80546013749462846FFF7B9FB574581
:1072D00000F1300308F8013BEDDB089A0027002A93
:1072E000CCBF93464FF0010B039A934429460122E9
:1072F0002046049302F094FA4946054602F006FB44
:10730000002840F3AB811BF8013C039A0BF1FF3BD3
:1073100004E05A4500F0AD811BF8013D392B0BF11B
:10732000010AF6D001338BF800304946204602F0BE
:107330003DF856B12FB1B74203D03946204602F08E
:1073400035F83146204602F031F82946204602F051
:107350002DF80023079A8AF80030249B1A60269B98
:10736000002B3FF440AC0398C3F800A019B0BDE86F
:10737000F08F1C20099B074403440993069B034498
:10738000069371E70126B6E4C0F1200008FA00F088
:107390004DE401465A46204602F0E6F9229B81461A
:1073A000012B40F3B6814FF0000AD9F8103009EBF9
:1073B0008303186902F0B0F8C0F1200041E700BF74
:1073C0000000244000B90008314600230A2220466C
:1073D00001F0F6FF129B0646002B40F3E982CDE94F
:1073E0000783002F00F31D81BAF1000F40F0D9810F
:1073F000B046049B089903F00102039B0A921F46C2
:10740000013B1944229B089113430993494628469E
:10741000FFF716FB31468346284602F077FA4246CC
:1074200049468246204602F091FAC26801460BF1B5
:107430003003002A43D104902846069302F066FAEE
:10744000024604992046049201F0B0FF049A069B7C
:107450001AB90999002900F09B82BAF1000FC0F215
:10746000648122994AEA010A0A9951EA0A0100F064
:107470005C81002A00F3B681089A07F1010A97425D
:10748000D3463B7000F0B481294600230A222046EF
:1074900001F096FF4645054631464FF000034FF098
:1074A0000A02204612D001F08BFF41460646002317
:1074B0000A22204601F084FF57468046A6E7204670
:1074C000049301F073FF0122049BC6E701F078FFEB
:1074D00057460646804699E7229B022B7ADC0C9B96
:1074E000002B7FF47EAF079B494601332846079364
:1074F000FFF7A6FADDF80CB000F1300300270BF817
:10750000013BF3E64946284602F000FA0028BFF6A0
:10751000C1AE294600230A22204601F051FF079BF5
:10752000054603F1FF380C9B002B7FF44DAF129BF7
:10753000002B40F334820893B7E6B04B0393033338
:10754000FFF7F4BBDDE9041200297FF473AEC2F348
:107550001303002B7FF46EAEA94B1340002B00F0F9
:107560000082099B4FF0010A01330993069B013306
:10757000069361E601230C93239B079A134412930D
:107580000133012B1F46B8BF012708930021172F95
:1075900061647FF71EAC012204235B0003F1140039
:1075A000B842114602F10102F7D9616411E40123E6
:1075B0000C93239B002B4CDD1F4612930893E5E7A9
:1075C00000230C93D8E700230C93F2E7129BCDF82D
:1075D0001C800893089B002B7FF443AD494605228D
:1075E000204601F0EDFE81462846494602F08EF91C
:1075F00000287FF736AD31230398079F804600F8B7
:10760000013B013703904946204601F0CFFE7B1C29
:10761000DDF80CA00793CDF80C80002E7FF491AE1E
:1076200093E631463A46204602F0FAF80646DBE693
:107630000D9BCDF83480A8EB03039B444FF000086A
:1076400088E5DDE90A234FF0020ACDE91023FFF7B0
:10765000EEBB012323930893FFF7B7BB03D1049B31
:10766000D8073FF550AEDA461BF8013D302BFAD073
:107670005BE6079B039A013307933123137054E6AB
:107680000F9A002A00F0288103F23343069ADDF8AE
:1076900034801A440692099A17461A44099264E5FE
:1076A0004FF000094E46DCE4294620460D9A02F0D0
:1076B0005BF80546B1E50E9064E500F01181DDE967
:1076C0000A01079A4F4B564206F00F0203EBC20322
:1076D000D3E90023F9F790FA36118046894600F085
:1076E000708100234FF0020A474FF20706D5D7E911
:1076F0000023F9F781FA01230AF1010A761007F154
:107700000807F2D1002B3FF4B1AB80468946FFF762
:10771000ADBB049B002B7FF446AEDDE90412C2F33F
:107720001303002B3FF418AF3DE6002A12DD294673
:1077300001222046049302F073F84946054602F000
:10774000E5F80028049B40F31781392B00F0FB80FB
:107750000BF13103BA46079A374601324646079283
:107760000AF8013BE1E50995069C049D02460B469B
:10777000F8F7F4FC52465B4680468946F9F7CCFCA4
:1077800060B952465B4640464946F9F79DFC0028E1
:107790003FF4CBAC099BD9077FF5C7AC039AFFF741
:1077A000FFBB2046716801F0DBFD0746002800F0B2
:1077B0000C81336906F10C0102339A000C30F9F7A1
:1077C000A5F939460122204602F02AF8804610E643
:1077D0002946204601F0C8FF05461EE5DDE90823DD
:1077E0009F1AC2E4392B00F0AE80BA460133B2E7EB
:1077F000079A374601324646079277E524B90008D2
:107800000000F07F18BC0008F0BB0008DDF84CA0B9
:107810008349DDE9102301EBCA0151E90201F9F7BF
:10782000EBF9CDE9100149464046F8F74DFE064612
:10783000F8F7E0FD0B46024649464046F8F78CFC57
:107840005346039F3036012B8046894607F8016B6B
:1078500000F0AC80139E039B1E440022714B4046F7
:107860004946F9F7C9F989468046F8F72DFE824660
:10787000F8F7C0FD02460B4640464946F8F76CFC57
:107880000AF1300A07F801ABB74280468946E4D1D5
:10789000DDE910010022644BF8F760FC42464B46DC
:1078A000F9F71CFC002862D1DDE9102300205E49B5
:1078B000F8F752FC42464B46F9F72EFC00283FF4FD
:1078C000A9AB16F8013CB246302B06F1FF36F8D0D2
:1078D000149B0133079338E5169BC3F13603D5E6B5
:1078E0004FF0020ADDE90A89FFF7C0BA089B002BB6
:1078F0003FF462AB129B002B7FF78CAB1393079B7B
:107900000022013B404649461493464BF9F774F96F
:10791000804689460AF10100F8F76CFD42464B4665
:10792000F9F76AF9414B0022F8F718FCA1F15073FE
:10793000CDE910011193FFF7BCBA079B0133079300
:107940003123FFF734BB079BBB4601330793392331
:1079500037460BF8013B4646D7E44FF000094E4648
:1079600049E69A4668E4109D139CB246B0E7149B22
:10797000039A0793FFF714BB7FF4ECAEDA077FF5A9
:10798000E9AEE2E6DDF854B0109D139CFFF742BB70
:10799000392BD8D0BAF1000F3FF7DAAEDAE6229BE6
:1079A000022B3FF713AECDF81C809CE53E466FE7F7
:1079B000229B022B3FF70AAE129BCDF81C80089346
:1079C0000FE54FF0020AFFF751BA024640F2EA21F2
:1079D000174B184803F094FC002620463146666495
:1079E00001F0BEFC039078B900224FF4D571104B22
:1079F000104803F085FC104B0393FFF7F4B83FF4F5
:107A000033ACC0F13C00B5E4039B012223644FF08A
:107A1000FF33239612930C920893FFF7FBBA00BF33
:107A200018BC0008000024400000E03F00001C409B
:107A300034B9000848B9000828B90008B1F90C2089
:107A4000F8B50C461107074643D4636842F4006258
:107A5000002BA2815BDDA56A002D56D000233E6875
:107A60003B6093B212F4805255D101233846E1694C
:107A7000A847421C65D0A389A56A5B0705D5636842
:107A8000C01A236B0BB1E36BC01A0246E1690023F5
:107A90003846A847411C40D13B68002B3DD01D2BE8
:107AA00001D0162B54D10022A38923F40063A381B3
:107AB0002369C4E90032216B3E6031B304F1400315
:107AC000994202D0384600F077F900231846236324
:107AD000F8BD2669CEB193B29A0718BF0023256876
:107AE00008BF63692660AD1BA3600CE02B463246DD
:107AF000D4F824C03846E169E047B0F1000CA5EBAA
:107B00000C05664416DD002DF0DC0020F8BDE36BAB
:107B1000002BA0DCF9E7206DAFE70022B4F90C30B0
:107B2000626023F400632269A381DB042260C2D572
:107B30002065C0E7A3894FF0FF3043F04003A381E5
:107B4000F8BD3B68002B96D01D2B06D0162B04D019
:107B5000A38943F04003A381F8BD00203E60F8BD37
:107B600038B505460C4608B1836BA3B1B4F90C00D7
:107B7000B8B1636EDB0701D4810515D528462146CF
:107B8000FFF75CFF636E0546DA0702D4A3899B0505
:107B90000ED5284638BD00F017F8B4F90C000028BF
:107BA000E7D10546284638BDA06D00F0D3FFE5E7D4
:107BB000A06D00F0D1FF284638BD00BF014900F09C
:107BC00073BB00BFDDB300082DE9F047824639489A
:107BD00000F0C0FFDAF83840002C66D104230322FD
:107BE0003549DAF80450CAF83C10DFF8D090DFF8D5
:107BF000D080344F344E0AF53B71CAE9B921CAF836
:107C0000E0422146EB600822C5E90044C5E904448E
:107C10006C66AC60AC6105F15C00FBF7D1FFC5E9B7
:107C20000759C5E90987EE6205F1580000F08EFF9B
:107C3000DAF80850254B2146EB600822C5E90044DC
:107C4000C5E904446C66AC60AC6105F15C00FBF70F
:107C5000B7FFC5E90759C5E90987EE6205F1580084
:107C600000F074FFDAF80C50194B2146EB60082243
:107C7000C5E90044C5E904446C66AC60AC6105F13B
:107C80005C00FBF79DFF05F15800C5E90759C5E900
:107C90000A76C5F8248000F059FF01230548CAF888
:107CA0003830BDE8F04700F057BF0248BDE8F04764
:107CB00000F052BF780B0020BD7B000815A2000821
:107CC00039A2000879A2000899A200080900010061
:107CD00012000200014800F03DBF00BF740B0020FD
:107CE000014800F039BF00BF740B002038B5084BC5
:107CF000084D5B1B9C1007D0043B1D44013C55F80C
:107D000004399847002CF9D1BDE8384003F07EBD16
:107D100064BE000860BE0008F8B50C46234F064656
:107D200001F012FBBB685D68C4F57E6325F00305B6
:107D30000F332B4423F47F6323F00F03A3F5805408
:107D4000B4F5805F07DB0021304602F04DFABB68D6
:107D50002B44984204D0304601F0FCFA0020F8BDD4
:107D60003046614202F040FA01300DD0104ABB6843
:107D70002D1B45F001055D60136830461B1B136029
:107D800001F0E8FA0120F8BD0021304602F02CFA9B
:107D9000BA68831A0F2BDEDD43F001035360054BF5
:107DA00003491B68C01A0860D5E700BFAC05002076
:107DB0007C0B0020B409002000295ED0F8B50C46E9
:107DC000064601F0C1FA54F8042C784FA4F10805D6
:107DD00022F001016818D7F808C04368844523F0F1
:107DE000030300F08780D207436034D454F8082C92
:107DF00007F10804AD1A1144AA68A24268D000EB4A
:107E0000030CDCF804E0D5F80CC01EF0010FC2F83A
:107E10000CC0CCF8082000F0918041F001036B60A9
:107E20000160B1F5007F31D24A09CB0801219140B0
:107E30007A6801331143796007EBC30257F83310B6
:107E4000083AC5E9021247F83350CD603046BDE824
:107E5000F84001F07FBAC2185268D2070ED4194414
:107E600007F108048368A34270D0C268DA609360A7
:107E700041F001036B606950D3E7704741F00103A3
:107E8000B1F5007F44F8043C0160CDD3B1F5206F1B
:107E90004FEA512347D28B0903F1390003F138022D
:107EA000C300F818FB580838984258D05A6822F096
:107EB00003028A4202D99B689842F7D1D868C5E983
:107EC000023085603046DD60BDE8F84001F042BA1E
:107ED000C2185268D20763D40B44D0E90212CA60B8
:107EE000916043F001026A603046EB50BDE8F84013
:107EF00001F030BA0B44D10707D454F8082CAD1A5E
:107F00001344D5E90212CA60916043F001026A602D
:107F1000274ABD6012689A4298D8264B30461968A5
:107F2000FFF7FAFE92E7142B0AD9542B1FD80B0B3C
:107F300003F16F0003F16E02C300B2E7194491E749
:107F400003F15C0003F15B02C300AAE741F0010307
:107F5000C7E90455C5E902446B60695076E7012121
:107F6000921001FA02F279680A437A60A7E7B3F542
:107F7000AA7F06D8CB0B03F1780003F17702C30088
:107F80008FE740F25452934206D88B0C03F17D00E8
:107F900003F17C02C30084E74FF47E737E2280E706
:107FA00041F001036B60016050E700BFAC050020A9
:107FB000B8090020AC0B00209368002B00F0B780BC
:107FC0002DE9F04FB1F90C300C46190780461746E1
:107FD00083B098B225D523691BB310F002033D6826
:107FE0002DD04FF0000B5E46DFF8B8A2002E00F057
:107FF0008B80564533465A4628BF53464046E16972
:10800000D4F824C0E047002840F38780BB6883444D
:108010001B1A361ABB60002BE8D1002003B0BDE864
:10802000F08F21464046FEF791FC002840F0368153
:10803000B4F90C303D6898B210F00203D1D110F0C1
:10804000010976D14E46002E5AD08205D4F808B0E8
:1080500040F1B580B3455A4600F2CD8010F4906FE0
:1080600000F0CB8023682169A3EB010B636903EB6C
:10807000430A0AEBDA7A0BF101034FEA6A0A334446
:108080005345524684BF9A465246430540F1EA8022
:108090001146404600F0D2FD002800F0F9805A4613
:1080A00021690190F8F732FDA289019B22F49062C8
:1080B00042F08002A28103EB0B0023613246AAEB5F
:1080C0000B03B346C4F814A0A3602060B246002698
:1080D0004946019201F0BCF8A3682168019AA3EB1C
:1080E0000B030A44A3602260B868D144A0EB0A00E5
:1080F000B860002891D0B4F90C0080B2002EA4D151
:10810000D5E9009608359EE7D5E900B608356DE754
:1081100021464046FFF724FD80B3B4F90C304FF000
:10812000FF3043F04003A38103B0BDE8F08F00208F
:1081300070471E46AA46994618461D4656B3002863
:1081400032D04A4620682169B24228BF324688426E
:10815000636904D9A16803EB010B5A4574DC9342AF
:1081600065DC2A464046E169D4F824C0E047B0F116
:10817000000BD2DDB9EB0B09CAD00120BB685D440E
:10818000A3EB0B03A6EB0B06BB60002B3FF445AF44
:10819000002ED4D10AF1080353F8046C9A4653F820
:1081A000085C0833002EF7D032460A21284601F039
:1081B00007F8002869D00130A0EB0509C1E7206865
:1081C000236998421BD86369B34218D86FF0004CFA
:1081D000B44528BFB4469CFBF3FC4A4603FB0CF3B2
:1081E0004046E169D4F824C0E047B0F1000A94DDCC
:1081F000A6EB0A0678E7B3463246206866E7B34541
:10820000DA4628BFB2464946524601F021F8A36833
:108210002268A3EB0A035244A3602260002BE7D13B
:1082200021464046FFF79CFC0028E1D075E729462F
:108230009346019201F00CF8A368019A9B1AA3607F
:1082400023681A44226095E729465A4601F000F84F
:10825000236821465B4440462360FFF781FC0028E9
:1082600088D05AE7404601F093FD034600287FF48A
:1082700022AF40462169FFF79FFD0C22B4F90C3074
:10828000C8F8002023F0800349E7721C914659E7A3
:108290000C22B4F90C30C8F8002040E74FF0FF3052
:1082A000BCE600BF00FCFF7F2DE9F8434FF000095A
:1082B0000746884600F53876D6E90154013D10D4CA
:1082C000A389013D012B08D9B4F90E30013304D044
:1082D00021463846C04749EA00096B1C04F168048E
:1082E000EED13668002EE7D14846BDE8F88300BFDE
:1082F0002DE9F0410469B4EB611F2FDD00F1140E8C
:108300004E1111F01F0C0EEB84050EEB86032BD0E3
:108310005EF8262004339D4222FA0CF1CCF12008AD
:1083200018D977461A6802FA08F20A4347F8042B6C
:1083300053F8041B9D4221FA0CF1F3D8A41BA300AF
:10834000053B9B0801330EEB83044EF82310C9B1A3
:10835000043417E0744641610029F9D10023036118
:1083600000234361BDE8F0819D4288BF00F1100207
:10837000F4D953F8041B9D4242F8041FF9D8A41BFA
:108380000EEB8404A4EB0E039B1074450361E7D04D
:10839000BDE8F0812DE9F04F0446A94889460668FA
:1083A0008BB030460292079303960594FBF7C4FC0A
:1083B0003346D9F800500344A9780246302913F80F
:1083C00001BC40F0DB816FF00100EB1C401B1D463F
:1083D00000EB030A13F8011B3029F8D0DFF86482A0
:1083E00018F80130002B00F0F18000273C462B7874
:1083F00018F803302E462BB116F8013F18F8033059
:10840000002BF9D130460399019201F049FF019AFE
:108410000090002800F09280002C40F09280337889
:10842000009403F0DF03502B344600F09480C9F829
:108430000060002F40F0AC80631B013B072B3946E6
:1084400004DD5B10072B01F10101FADC05980492B1
:1084500000F086FF049A0190002800F06A82019BD8
:10846000A54203F11406069680F0DD810027C2F1D3
:108470000103B946049311E0202F00F092803946A1
:10848000043714F8013C544618F80330AC4203F0AA
:108490000F0303FA01F349EA030916D914F8013C62
:1084A00004F1FF3A5B45E7D1049B5344AB42E3D36D
:1084B000184603990992089301F0F2FEDDE90832AB
:1084C0000028D9D11C46AC42E8D8069B46F8049B4C
:1084D000F61A019BB6101E61484601F01DF8029B7A
:1084E00076011C68301AA04200F3AE80C0F22681EB
:1084F0000027029B009A9B689342C0F289810299EF
:10850000009A4B6893427EDD9D1AAC4200F3BC801A
:10851000CA68022A00F0BC81032A00F0B481012A53
:1085200000F0988150250598019900F03FFF002345
:108530002846149A13600BB0BDE8F08F002C00F0B1
:108540000B81A41BA30000933378344603F0DF03B0
:10855000502B7FF46CAF63782B2B00F0ED802D2B2C
:108560006AD00020661C18F803104B1E182B61D827
:108570007378103918F80330013623BB00B1494233
:10858000009BC9F800600B440093002F3FF454AFE8
:10859000BAF1000F14BF0025062528460BB0BDE830
:1085A000F08F002146F8049B0427894669E701EB18
:1085B000810103EB4103A3F1100116F8013F18F804
:1085C0000330002BDAD0192BF1DDD7E728460399C9
:1085D000009201F065FE009A002873D1A95CAC18E6
:1085E00018F80130002B6FD03029254605D115F839
:1085F000013F302BFBD018F80330B3FA83F74FF06C
:10860000010A7F09F6E6012557B1029BDB68022BC0
:1086100062D0032B64D0012B00F0858045F010055B
:108620002846149B019A1A60079B009A1A600BB0A7
:10863000BDE8F08F2646FAE60120A378A61C92E753
:1086400054BB000850BA0008019D061B314628465D
:1086500001F06EFB074678B10127721E069953118F
:1086600051F8231002F01F0307FA03F30B4203D063
:10867000BA4200F3E2800227009B3146334401985E
:108680000093FFF735FE34E76E1E002F40F0C980DF
:10869000002E40F0CC8001230699721151F822205F
:1086A00006F01F0603FA06F629461642019818BF7F
:1086B00047F00207FFF71CFE029B641B5B68022564
:1086C0000093A1E72C46297801F0DF01502900F042
:1086D000BD80C9F800405BE7159BC3F1010315930A
:1086E000159B002B9AD0019BDDF818801E69002095
:1086F0004346B70008EB860103E0994243F8040CB7
:1087000040D99C4653F8042BB2F1FF3FF5D001321B
:10871000022DCCF8002000F0C08014F01F0440F0BF
:10872000E28021257CE7BA077FF578AF069B1B68BE
:108730001F43FB07D7D471E700207EE7221ADDE94B
:10874000003105989B1A009301F06AF80346143330
:10875000002701900693CCE6B35CB01818F803101C
:10876000064600293FF45DAE16F8013F18F80310E5
:108770000029F9D1801B8100009152E64FF0000AD8
:1087800002352BE6019B9B689E4280F28D8033462A
:108790000121019A5818022D02EB830310615961DF
:1087A0007BD08642B9DA002840F3AA80019A08EB10
:1087B0008000536902F1180188424FEA530340F2E6
:1087C000B28044460A6843EAC27344F8043B51F855
:1087D000043B88424FEA5303F4D8019A821A193AAB
:1087E0009208013248F8223008EB8202002B40F058
:1087F0009E800199A2EB08039B1042450B6100F09B
:108800008280029B009A9B6801329342009288DA30
:108810000199059800F0CAFD0023149AA32513605E
:10882000BBE6012737E74FF00009069E4DE63146CB
:10883000019801F07DFA07462DE72846B11E01F0A8
:1088400077FA00283FF417AF032715E70023012725
:10885000009380E6AC427FF465AE012C08D001980D
:10886000611E01F065FA00283FF45CAE029B5B6874
:108870000122079962250B60019B06991A610A6023
:10888000149A136089E6159A002A3FF44BAEEFE77D
:10889000159A002A7FF446AEEAE7029B1B68013B6B
:1088A000A34234D02225BBE6019B059859680131CB
:1088B00000F056FD8046002841D0DDF804900C30D1
:1088C0004946D9F810300C3102339A00F8F71EF9F6
:1088D0004946059800F06AFDD8F81030CDF80480BC
:1088E00008F1140854E7474457F8040C00F014FE4C
:1088F000C4F12004A042BFF614AF019B186952E7EF
:108900000023019A13610023019A536179E701233F
:10891000621158F8222004F01F04A34013420CBF38
:10892000222521257CE64246C8F800306BB104328E
:108930005FE70246DE21064B064802F0E1FC0246F4
:108940008421034B034802F0DBFC019A1361DAE750
:1089500034B90008C8B9000810B58646046809E0B3
:1089600014F8013FA3F1410CBCF1190F98BF20335B
:10897000934208D111F8012B002AF1D101340120D2
:10898000CEF8004010BD002010BD00BF2DE9F04F13
:10899000096885B04B1111F01F01029002EB8303AF
:1089A000039140F08E801D1F0193002302990198CE
:1089B000096840F8043C4C1C4978002900F0978075
:1089C000A846AC469A461E46DFF868910EE020297C
:1089D00000F28B80B24506DAC44501D2072B5BDD7D
:1089E000624551D3082314F8011FA1B119F8010001
:1089F0000028ECD00133082B06F101063ADCDCF844
:108A00000010090100F00F000843CCF8000014F832
:108A1000011F0029EAD1002E69D0E04501D9072BBA
:108A200073DD624551D26346111F53F8040B9D421A
:108A300041F8040FF9D2A5EB0C0323F00303691CE2
:108A400004330CF1010C614538BF042300211344A9
:108A500043F8041B9D42FBD2019B53F8043C2BB905
:108A6000AA4248D055F8043D002BF9D0052005B0A6
:108A7000BDE8F08F6245B6D20023ACF1040CCCF80F
:108A8000003019460123BDE70023ACF104084CF87F
:108A9000043CB246C446A6E7C3F10801890060461B
:108AA0008B46DCF80030C1F1200E416801FA0EF768
:108AB0003B43036021FA0BF340F8043F4045F4D3F5
:108AC0008EE7191D1D4601916FE7039B002BC3D054
:108AD0004FF0FF33019C039954F8040CC1F12001BD
:108AE000CB40034044F8043CB9E7292909D00420CD
:108AF00005B0BDE8F08F012305202B6005B0BDE86F
:108B0000F08F029901340C6085E76446C3F10803D5
:108B10009B00DCF80010C3F12007666806FA07F036
:108B20000143216026FA03F144F8041FA045F4D85C
:108B300077E700BF50BA0008014B93F8280170474F
:108B4000400400200048704730050020704700BFF7
:108B5000704700BF704700BF704700BF2DE9F0416C
:108B60008B890C46990796B008D5012204F143037E
:108B7000C4E90432236016B0BDE8F081B4F90E10E8
:108B80000646002927DB6A4602F026FD002821DB85
:108B9000019D4FF4806805F47045A5F50055B5FAC0
:108BA00085F54FF400676D094146304600F046F800
:108BB000B4F90C30F0B1204A43F08003F263C4F8FA
:108BC0001480A3812060206135BB3B43A38116B094
:108BD000BDE8F081A38913F0800519D04FF040085B
:108BE00030464146002500F029F82F46B4F90C30F4
:108BF0000028E0D19A05BED4012123F0030304F13B
:108C0000430243F00203C4E90421A3812260B2E7D6
:108C10004FF480682F46C7E73046B4F90E1002F0D3
:108C2000EFFC10B9B4F90C30CFE7A38923F00303AC
:108C300043F001031BB2C8E7BD7B00082DE9F04FEC
:108C400001F10B05162D064683B025D8102900F238
:108C5000B88000F079FB102518224FF0020CB54FB8
:108C60003A445368A2F108018B4200F0B7805A6879
:108C7000D96822F003021A449C683046E1608C6097
:108C8000516803F1080441F00101516000F062FBFA
:108C9000204603B0BDE8F08F35F0070500F1918064
:108CA000A94200F28E8000F04FFBB5F5FC7FC0F0CA
:108CB00094816B0A00F08C80042B00F26A81AB096E
:108CC00003F1390C03F138044FEACC00994F3844D2
:108CD00043680838984206D10CE0002980F22681CA
:108CE000DB68984206D05A6822F00302511B0F2914
:108CF000F3DDA4463C69DFF840E274457AD062684F
:108D000022F00302531B0F2B00F37681002BC7E9DF
:108D100004EE80F26781B2F5007F80F019810121B5
:108D2000D30852090B4491407A6857F833000A433C
:108D300007EBC3010839A060E1607A6047F833406F
:108D4000C46001214FEAAC039940914259D81142C5
:108D500006D12CF0030C490011420CF1040CFAD09E
:108D600007EBCC0948466446D0F80C80404508D152
:108D70001CE1002B80F22181D8F80C80404500F0E6
:108D80001581D8F8042022F00302531B0F2BF0DDCD
:108D900008EB050145F00105C8F804503046D8E954
:108DA0000264F460A66043F00104C7E904114C605A
:108DB000C1E902EE48F8023000F0CCFA08F10804EC
:108DC00002E00C2300243360204603B0BDE8F08F9E
:108DD0004FF400704FF0400C3F2477E7D3689A427D
:108DE00008BF0CF1020C7FF442AF3C69DFF848E1A8
:108DF000744584D101217A684FEAAC0399409142CD
:108E0000A5D9BC68636823F003094D4503D8A9EBD5
:108E100005030F2B7ADCDFF824B1494BDBF8002087
:108E20001B6801322B4404EB090A00F02F8103F583
:108E300080530F3323F47F6828F00F0841463046F3
:108E400001F0D2F9411C024600F0EF80824500F2A9
:108E5000EA803C4B196841440846196000F049819A
:108E6000DBF80010019301311BBFA2EB0A0A50444A
:108E7000CBF80020186012F0070B00F01181CBF145
:108E800008010A44CBF5805190440831A1EB080158
:108E9000C1F30B0A51463046009201F0A5F9421C7D
:108EA000DDE9002300F04B81801A00EB0A08196805
:108EB00048F001005144BC42BA601960506000F0B3
:108EC0002481B9F10F0F40F222814FF0050E606846
:108ED000A9F10C0C2CF0070C00F0010040EA0C008A
:108EE0006060BCF10F0F04EB0C00C0E901EE00F272
:108EF0002E8114465068144B1A688A4238BF196094
:108F0000124B1A688A4238BF196090E0621943F028
:108F1000010345F0010565603046BA6008345360CE
:108F200000F018FA204603B0BDE8F08FD9681A4463
:108F3000A2E600BFAC050020B4050020B409002063
:108F4000AC0B00207C0B0020A40B0020A80B002001
:108F5000B2F5206F4FEA52235FD3142B00F2B18099
:108F600003F15C01C9005B337818795808388842EE
:108F700000F08F804B6823F00303934202D9896885
:108F80008842F7D1C8687A68C4E902108460CC606E
:108F9000D7E6142B59D9542B00F29B802B0B03F1ED
:108FA0006F0C03F16E044FEACC008FE60134A30787
:108FB00000F108007FF4D8AE53E0444642445368C1
:108FC000D8F80C1043F00103536054F8083F3046C2
:108FD000D9608B6000F0BEF9F6E64FEAD50C05F1DA
:108FE00008023CE622445368304643F001035360D4
:108FF00000F0B0F90834E7E6611945F00105656055
:1090000043F00105C7E904113046C1E902EE4D60A5
:10901000A35000F09FF90834D6E6930903F1390113
:10902000C9003833A0E7BC425ED0BC68606820F05D
:1090300003084545A8EB050302D80F2B3FF766AFA1
:10904000304600F087F90024BEE603F15C0C03F122
:109050005B044FEACC0039E659F808394B4540F03B
:1090600095801CF0030F0CF1FF3CF5D17B6823EADF
:1090700001037B60490099423FF6C3AE11B9C0E6D7
:10908000490004341942FBD0A44669E603F11008F4
:10909000D4E601229B109A407B681A437A6073E7FA
:1090A00002EB08014942C1F30B0A514630460092D7
:1090B00001F09AF8431CDDE900237FF4F5AEDA46AF
:1090C000F5E6542B26D8130B03F16F01C9006E335C
:1090D0004AE7B3F5AA7F26D8EB0B03F1780C03F12E
:1090E00077044FEACC00F1E5294B1868404418603A
:1090F000B6E6CAF30B0CBCF1000F7FF4B1AEBC684E
:10910000C84448F001006060F5E61446F3E6012328
:10911000536095E7B3F5AA7F24D8D30B03F1780108
:10912000C900773320E740F25452934224D8AB0C65
:1091300003F17D0C03F17C044FEACC00C6E5ABF1F2
:10914000080BD8444FF0000AA8EB0208AFE604F180
:10915000080130460093FEF72FFEBC68009B606854
:109160001968C8E640F254518B420BD8930C03F1B6
:109170007D01C9007C33F7E64FF47E704FF07F0C21
:109180007E24A3E54FF47E717E23EDE67B6871E7D4
:109190007C0B002082B049B15AB16BB113780B60DF
:1091A0001278101E18BF012002B0704701A9002AD2
:1091B000F3D1104602B070476FF00100F4E700BF32
:1091C0005FFA81FC810710D00346511E2AB90AE0DC
:1091D0009A0718460AD0013905D3184613F8012B0F
:1091E0006245F5D1704700207047114603290CD81D
:1091F0000029F8D00346014401E08B42F3D0184621
:1092000013F8012B6245F8D1ECE7024610B54CEAA1
:109210000C2444EA04441046036804326340A3F17A
:10922000013E2EEA030313F0803F04D104390329E1
:109230001046F0D851B10346014401E08B4205D0FD
:10924000184613F8012B6245F8D110BD002010BD5F
:1092500088420DD98B1883420AD900EB020CBAB1AF
:10926000624613F801CD994202F801CDF9D1704759
:109270000F2A0ED8034602F1FF3C4AB10CF1010C53
:10928000013B8C4411F8012B614503F8012FF9D102
:10929000704740EA01039B074FD1A2F1100370B55C
:1092A00001F1200C23F00F0501F1100E00F1100464
:1092B000AC441B095EF8105C0EF1100E44F8105C13
:1092C0005EF81C5C103444F81C5C5EF8185C44F8D2
:1092D000185C5EF8145CE64544F8145CEAD101338E
:1092E00012F00C0F01EB031102F00F0400EB03135B
:1092F00027D08E46043C24F003064FEA940C1E440B
:109300001C1F5EF8045B44F8045FB442F9D10CF111
:10931000010402F0030203EB840301EB840102F178
:10932000FF3C4AB10CF1010C013B8C4411F8012BBC
:10933000614503F8012FF9D170BD034602F1FF3CEE
:109340009CE72246EBE700BF0148FFF703BC00BFE4
:10935000700B00200148FFF7FFBB00BF700B00201F
:1093600038B5C36C05460C464BB153F8240080B1A8
:10937000026843F824200023C0E9033338BD2122CA
:10938000042101F0DDFF0346E8640028EDD1002050
:1093900038BD0121284601FA04F56A1D920001F04A
:1093A000CFFF0028F3D0C0E90145E4E731B1C36C39
:1093B0004A6853F82200086043F82210704700BF43
:1093C0002DE9F0414FF0000E0E461C460D69074690
:1093D00001F1140001680EF1010E8BB202FB034390
:1093E000090C4FEA134C02FB01CC9BB203EB0C437C
:1093F000754540F8043B4FEA1C44EBDC3CB1B368D4
:10940000AB4207DD06EB850301355C613561304613
:10941000BDE8F081716838460131FFF7A1FF804651
:10942000A8B1326906F10C01023292000C30F7F754
:109430006DFBFB6C726853F82210316043F82260B8
:10944000464606EB850301355C613561DFE7024680
:10945000B521024B024801F053FF00BF34B90008A8
:109460006CBB00082DE9F8431E46DFF8A0C0174684
:1094700003F108028CFB023C092E4FEAE273054619
:109480000C46C3EB6C0339DD4FF0010C00214FEAB1
:109490004C0C634501F10101F9DC2846FFF760FF40
:1094A000014668B3089B092F43614FF00103036134
:1094B00012DC09270A34BE420BDDF61B264414F8E1
:1094C000013B0A222846303BFFF77AFFA6420146BD
:1094D000F5D10846BDE8F88304F10909C8463C44C3
:1094E00018F8013B0A222846303BFFF769FFA045E8
:1094F0000146F5D1A7F108044C44DCE70021CCE794
:109500000246CE21024B034801F0FAFE398EE338C1
:1095100034B900086CBB0008020C12040346CAB937
:109520001020834013F07F4F04BF1B02083013F05C
:10953000704F04BF1B01043013F0404F04BF9B0069
:109540000230002B05DB13F0804F00F1010008BF53
:10955000202070470020E5E70368024613F007006B
:1095600009D0D9071FD498074BBF5B089B0801207F
:1095700002201360704799B209B91020C340D9B2D4
:1095800009B908301B0A190704BF1B0904309907E1
:1095900004BF9B080230D90703D45B0800F1010027
:1095A00003D013607047002070472020704700BF31
:1095B00038B5C36C04460D464BB15868B0B102686B
:1095C0005A60002201234561C0E9032338BD2122EE
:1095D000042101F0B5FE0346E0640028EDD100222D
:1095E0004FF4A071074B084801F08AFE1C220121AC
:1095F000204601F0A5FE0028F1D001220223C0E997
:109600000123DEE734B900086CBB00082DE9F04FF8
:109610000E6915698846AE42144685B005DB2A46B8
:10962000234635460C4616469846A3686168AF192E
:10963000BB42B8BF0131FFF793FE0190002800F054
:109640008780019B03F1140909EB870AD14505D2F4
:109650004B46002243F8042B9A45FBD808F1140826
:1096600008EB860B04F11403D8451A4603EB850575
:109670005FD22B1B153B23F0030304331534A542A3
:1096800038BF0423CDE902A7AC461F46924605E049
:10969000000C29D1C34509F1040948D958F8040B35
:1096A00085B2002DF4D056464C46002356F8040BE4
:1096B000216882B21FFA81FE05FB02EE000C0A0C43
:1096C00005FB0022734402EB13429BB243EA0243C0
:1096D000B44544F8043B4FEA1243E7D849F8073051
:1096E00058F8040C000CD5D0D9F80030544619466F
:1096F0004D4600222688090C00FB06119BB20A4445
:1097000043EA024345F8043B54F8046B2968360CDD
:109710008BB200FB0633A44503EB12434FEA13421E
:10972000E8D8C34549F8073009F10409B6D8DDE99E
:1097300002A7002F02DC05E0013F03D05AF8043DE8
:10974000002BF9D0019B18461F6105B0BDE8F08FD2
:10975000024640F25D11024B024801F0D1FD00BF0C
:1097600034B900086CBB000812F003032DE9F04186
:10977000144607462ED10E46A4101CD0BD6C95B3DE
:10978000E3074FF0000806D4641014D02868A8B18D
:109790000546E307F8D52A4631463846FFF736FF37
:1097A000B6B17168FB6C641053F82120326043F845
:1097B00021600646EAD13046BDE8F0812A462946B6
:1097C0003846FFF723FF28600546C0F80080E0E731
:1097D0000646D9E70F4A013B52F823200023FFF742
:1097E000EFFD0646C8E701213846FFF7B9FD0546FB
:1097F00040B140F271230122C0E904230023B86480
:109800000360BDE702464FF4A071034B034801F02B
:1098100077FD00BFE0BC000834B900086CBB00084D
:109820002DE9F0470C462669A36806EB6216751C05
:109830009D429046074649684FEA621904DD5B0085
:109840009D4201F10101FADC3846FFF789FD00284D
:1098500051D0B9F1000F00F114010FDD0B464FF0AC
:10986000000C09F105024FEA820E00EB820243F878
:1098700004CB9342FBD1AEF114031944226904F1E5
:10988000140318F01F0803EB820C2CD08E464FF007
:10989000000AC8F120091A6802FA08F242EA0A022C
:1098A0004EF8042B53F8042B9C4522FA09FAF2D8FF
:1098B000ACEB0403153B23F00303043304F115025E
:1098C000944538BF0423BAF1000F18BF2E4641F863
:1098D00003A0FB6C6268066153F82210216043F814
:1098E0002240BDE8F087043953F8042B9C4541F829
:1098F000042FF9D8EDE7024640F2D911014B024896
:1099000001F0FEFC34B900086CBB000884460B690A
:109910000069C01A15D10CF1140C14310CEB830240
:1099200010B401EB830301E0944508D252F8044DD2
:1099300053F8041D8C42F7D004D24FF0FF3010BC16
:1099400070477047012010BC704700BF2DE9F84FE9
:109950000C6913698946E41A002C17467DD101F180
:109960001406143202EB830206EB830301E09E42ED
:1099700076D253F8045D52F8041D8D42F7D067D3B8
:10998000D9F80410FFF7ECFC002873D0D9F8105078
:10999000C46000F1140426464FF0000A3B6909F147
:1099A000140807F1140E09F1100C08EB85020EEBF8
:1099B00083095CF804BF5EF8041B1FFA8BF3534461
:1099C0001FFA81FA090CA3EB0A03C1EB1B4101EB5F
:1099D00023419BB243EA0143F14546F8043B4FEA79
:1099E000214AE6D8A9EB070115391537B94521F009
:1099F000030606F1040638BF042621F0030138BF30
:109A00000021B044424526440C4418D93746444608
:109A100054F8041B8BB253444FEA234A0AEB11411A
:109A20009BB243EA0143A24247F8043B4FEA214A72
:109A3000EED8541EA4EB080424F00304344423B9E4
:109A400054F8043D013D002BFAD00561BDE8F88FC4
:109A50004B460124B9461F4692E7F9DB00248FE705
:109A60000021FFF77DFC60B101220023C0E904233F
:109A7000BDE8F88F02464FF41071054B054801F020
:109A80003FFC024640F23221014B024801F038FC13
:109A900034B900086CBB00080F4B0B40A3F15073A6
:109AA000002B02DD0020194670475B42B3F1A07F16
:109AB0004FEA235205DA4FF40023002043FA02F163
:109AC0007047143A1E2AD6BF4FF00043012223FAF2
:109AD00002F20021104670470000F07F2DE9F041AE
:109AE000076900F1140606EB87070C4657F8041CBB
:109AF000A7F104080846FFF70FFDC0F120030A286C
:109B0000236036DD46451ED2B0F10B0357F8082C12
:109B100026D0C3F1200C994022FA0CF00843A7F19B
:109B2000080140F07F558E4245F440153AD202FAC2
:109B300003F057F80C3C23FA0CF303431C46204671
:109B40002946BDE8F081B0F10B0308D001FA03F01B
:109B5000002340F07F551C4645F44015EFE71A46B8
:109B6000144641F07F5545F4401520462946BDE88E
:109B7000F081C0F10B0321FA03F2464542F07F5514
:109B80002CBF002257F8082C45F4401538BFDA40A6
:109B900000F1150301FA03F343EA020420462946C3
:109BA000BDE8F08102FA03F31C46C8E770B5012155
:109BB00082B016461D46FFF7D3FB044600284CD062
:109BC0002B46C5F30A55C3F313030DB143F48013B9
:109BD000002E019322D068460096FFF7BDFC0028B6
:109BE00037D0019B0099C0F1200203FA02F20A4328
:109BF000C34001936261002B14BF02210121A361C4
:109C00002161B5B1069BA5F2334505441D60079B54
:109C1000C0F135001860204602B070BD01A8FFF702
:109C20009BFC0123019A1946626120302361002DBB
:109C3000E8D104EB8102A0F232431069069A136066
:109C4000FFF76AFCC0EB41112046079B196002B088
:109C500070BDDDE900236261CDE7024640F20A31C2
:109C6000014B024801F04CFB34B900086CBB000802
:109C70002DE9F04383B0884669468146FFF72EFF01
:109C800004460D46404601A9FFF728FFD9F81030D9
:109C9000D8F810200F469A1ADDE90063F31A03EB97
:109CA0004213002B0CDD05EB035906464D463246A8
:109CB0003B4620462946F7F7C9F803B0BDE8F083D4
:109CC000C3EB033301EB035106460F46EFE700BF3A
:109CD00001F1FF3C116902F114034FEA6C1C03EB24
:109CE00081010CF1010C8B4200EB8C0C16D210B5EB
:109CF000A0F1040E53F8044B99424EF8044FF9D8E2
:109D00008B1A153B23F0030304331844844504D90C
:109D1000002340F8043B8445FBD810BD844505D999
:109D2000002340F8043B8445FBD87047704700BFD0
:109D300003694A11934200F1140009DA00EB83032E
:109D400002E053F8042DC2B98342FAD800207047CC
:109D500010DD11F01F010DD010B450F8224000EBBF
:109D6000820324FA01F202FA01F18C420BD00120A5
:109D700010BC704700EB8203E6E70120704753F800
:109D8000042D002AF3D18342F9D8002010BC70477B
:109D90002DE9F84F1646002900F0988006F10B05D2
:109DA00080460C46FFF7D0FA162D5DD810252A46BE
:109DB000AE425ED854F8041CA4F1080921F0030750
:109DC000974262DABC4B09EB0700D3F808C0844520
:109DD00000F09780D0F804C02CF0010303445B68C6
:109DE000DB0768D42CF0030C07EB0C03934247DA33
:109DF000CB0710D454F8083CA9EB030ADAF8043076
:109E000023F003018C44BC44944580F211817B18FB
:109E1000934280F2E88031464046FEF70FFF064647
:109E2000E0B154F8043CA0F1080223F001034B44D4
:109E3000934200F0D2803A1F242A00F2F580132AC0
:109E400000F2AC80034622461168196051685960DF
:109E500092689A6021464046FDF7AEFF4046FFF704
:109E600079FA3046BDE8F88F25F00705002D2A461F
:109E70009EDA0C230026C8F800303046BDE8F88F83
:109E80001F46D0E90223D3609A607B1B0F2B22D898
:109E9000D9F8043003F001033B43C9F804304F44C0
:109EA0007B6843F001037B6026464046FFF752FA89
:109EB0003046BDE8F88FC907ADD454F8083CA9EB8B
:109EC000030ADAF8041021F00301A0E71146BDE807
:109ED000F84FFEF7B3BED9F8041043F0010301F0C8
:109EE00001012943C9F8041009EB05014B604F44F7
:109EF0007B68404643F0010308317B60FDF75CFF5F
:109F0000D2E7DCF8040020F0030B07EB0B0C05F1A3
:109F1000100084454DDAC9073FF57DAF54F8081CA1
:109F2000A9EB010ADAF8041021F003018B44BB44C9
:109F300058453FF76CAF5646DAF80C1056F8080F44
:109F40003A1F242AC160886000F2DB80132A40F2A5
:109F5000D68021681B2ACAF808106168CAF80C105C
:109F600000F2E08008340AF1100221681160616893
:109F70005160A1689160ABEB05020AEB050142F06C
:109F8000010299604A60DAF80430404603F00103A8
:109F90001D43CAF80450FFF7DDF96EE723681B2A5A
:109FA00003606368436068D804F1080200F10803A5
:109FB0004AE709EB0502ACEB050C9A604CF0010393
:109FC000536054F8043C404603F001031D4344F839
:109FD000045CFFF7BFF926464FE750F8043C23F036
:109FE00003031F4451E75646DAF80C1056F8080FE1
:109FF0003A1F242AC16088604CD8132A48D92168A6
:10A000001B2ACAF808106168CAF80C1056D8083420
:10A010000AF110021F462368D1461360636853603B
:10A02000A3683446936030E72146FFF711F911E742
:10A030005646D0E90213CB60996056F8081FDAF84B
:10A040000C303A1F242ACB6099602DD8132A29D9C5
:10A0500023681B2ACAF808306368CAF80C3042D853
:10A0600008340AF11003226867461A606268D14614
:10A070005A60A26834469A6007E7A368242A83607E
:10A08000E368C36026D004F1100200F11003DBE6A0
:10A090003246BFE7214630461F46D146FFF7D8F883
:10A0A0003446F2E63346DEE7214630466746D1467F
:10A0B000FFF7CEF83446E8E6AC050020A168242A74
:10A0C000CAF81010E168CAF8141020D010340AF150
:10A0D00018029FE7236904F1180203616369436171
:10A0E00000F11803B0E6A368242ACAF81030E36828
:10A0F000CAF8143022D010340AF11803B3E73246FC
:10A1000033E721463046FFF7A3F8174B33E72269C0
:10A110001834CAF8182054F8042CCAF81C200AF184
:10A12000200277E7A168242ACAF81010E168CAF86B
:10A1300014100ED010340AF1180216E723691834EF
:10A14000CAF8183054F8043CCAF81C300AF120034D
:10A1500089E722691834CAF8182054F8042CCAF880
:10A160001C200AF1200200E7AC050020F8B500270A
:10A17000DFF85CC021F00043634504460D461760DC
:10A1800023DC844653EA0C0C1FD0DFF848C0164687
:10A1900001EA0C0C0A46BCF1000F09D100220E4B5B
:10A1A000F6F72AFD6FF0350704460A4621F0004312
:10A1B00022F0FF421B1522F4E002A3F2FE333B44DF
:10A1C00042F07F55336045F4001520462946F8BD1E
:10A1D000FFFFEF7F0000F07F0000504300200149A7
:10A1E000704700BF0000F87F002238B5064D0446D6
:10A1F00008462A60F9F794F9431C00D038BD2B6853
:10A20000002BFBD0236038BDB00B00200048704706
:10A210000000C07F10B50C46B1F90E1001F018FA1D
:10A22000002803DB236D0344236510BDA38923F4B9
:10A230008053A38110BD00BF2DE9F0410C46B1F958
:10A240000C101F46CB05054616460BD421F4805151
:10A25000A1813B4632462846B4F90E10BDE8F041D4
:10A2600000F0F2BFB4F90E100223002201F0DAF977
:10A27000B4F90C10EAE700BF10B50C46B1F90E10A6
:10A2800001F0D0F9A389421C0EBF23F4805343F49C
:10A2900080532065A38110BDB1F90E1001F08CB878
:10A2A000A2B330B540EA0104A40786460B462AD083
:10A2B00004780B78A3422FD1012A0CD0844654B1E4
:10A2C0001CF8014F11F8013F9C4225D16FEA0C03A5
:10A2D0001344C318F3D1002030BD1946DEF8004006
:10A2E0007046A4F1013323EA040C0B4653F8045BD7
:10A2F0000EF1040EAC420BD1043AECD01CF0803FBE
:10A30000E9D170461946032AE7D8D1E710467047CD
:10A3100004780B789C42D1D0E01A30BD30B540EAC9
:10A320000104A30722D1032A20D90B4684461946EB
:10A3300053F8045BA5F1013424EA050414F0803FCE
:10A3400015D1043A032A19464CF8045BEFD801F101
:10A35000FF3E52B163461EF8011F541E03F8011B55
:10A3600041B122469C46002AF4D130BD844601F119
:10A37000FF3EEEE76244002CF7D003F8011B934246
:10A38000FBD130BD2DE9F84F4B6E90469C042DD586
:10A390009368126843B38B46064602F1080959E9EF
:10A3A000025A5FEA9A0715D00024043D01E0A74253
:10A3B0000ED05A46304655F8041F01F0D9F8431C18
:10A3C00004F10104F3D10023C8E90133BDE8F88F9B
:10A3D000D8F808302AF0030AA3EB0A03C8F80830BB
:10A3E00009F10809002BDAD10020ECE7FDF7E4FDC4
:10A3F0000023C8E90133BDE8F88F00BF10B49468AA
:10A4000014B110BCFFF7BEBF2046546010BC7047AB
:10A410002DE9F04FBDB01C461746CDE9053002913D
:10A4200018B1836B002B00F07782029A536EDE071F
:10A4300040F18481B2F90C108AB2900408D441F43E
:10A44000005202994B6E8A8123F4005392B24B66FC
:10A45000110740F1EC80029B1B69002B00F0E780A4
:10A4600002F01A030A2B00F0F08013AB10930023C4
:10A47000CDE91133CDE90933CDE90B330DF14C09A9
:10A4800004933B78002B00F046813C4604E014F82E
:10A49000013F002B00F02181252BF8D1E51B40F076
:10A4A0001E812378002B00F036814FF00003002539
:10A4B0004FF0FF3B4FF02B088DF83B30637803954E
:10A4C000671C0137A3F120025A2A00F24681DFE817
:10A4D00012F0A102440144019D02440144014401DF
:10A4E0007C02440144016A00530244012902AF0284
:10A4F0004401AB025B005B005B005B005B005B0048
:10A500005B005B005B0044014401440144014401E1
:10A510004401440144014401130278004401440110
:10A520004401440144014401440144014401440103
:10A53000D100440144014401F701440141024401B6
:10A540004401210544014401440144014401440102
:10A55000440144014401440113027A0044014401CE
:10A56000440137027A00740044012D02440169025B
:10A57000D300570274004401F70172004105440101
:10A5800044014305440172000021A3F1300217F891
:10A59000013B01EB810102EB4101A3F13002092AE9
:10A5A000F5D903918EE7059B53F8042B002A0392FB
:10A5B0000593C0F2B4813B7883E73B7845F02005F2
:10A5C0007FE745F01005AC06059E40F16B8107362C
:10A5D00026F007063246736852F8086B98460592D3
:10A5E000002BC0F24984BBF1FF3F00F0318556EAF1
:10A5F000080325F0800A00F025840A2E78F1000374
:10A6000080F0E1840123554630368DF8EF600193E8
:10A610000DF1EF04DDF804809DF83B30D845B8BF5C
:10A62000D846002B00F0A88008F10108A4E0029DA4
:10A6300006982946FCF78AF9002840F09485AA89F3
:10A6400002F01A030A2B7FF410AF0299B1F90E3011
:10A65000002BFFF60AAF4B6EDE0702D4950540F1E2
:10A66000628523463A46029906983DB0BDE8F04F10
:10A6700000F09ABD45F0100515F0200800F00381A8
:10A68000059E073626F007063346D6F8048053F8B1
:10A69000086B0593002325F4806A4FF000028DF8C3
:10A6A0003B20BBF1FF3F00F0DD8156EA08022AF0B3
:10A6B000800540F0D681BBF1000F40F0CC84002B28
:10A6C00040F0C5831AF00103019300F0EC833023BE
:10A6D0000DF1EF048DF8EF309CE7E51B1BD0119BCB
:10A6E000129A01332A44072BC9E90075129211937B
:10A6F00005DC09F10809049B2B440493D1E6002AE8
:10A7000000F09C830299069810AAFFF73BFE40B91F
:10A710000DF14C09EFE7129B002B40F0158500234B
:10A720001193029A536ED90740F1A28093895B0678
:10A7300000F1258504983DB0BDE8F08F029BB3F988
:10A740000C108D058AB23FF578AE1D46986DFEF768
:10A7500001FAB5F90C108AB26FE6002BDBD04FF08E
:10A7600001088DF88C304FF0000323AC8DF83B309E
:10A77000CDF804804FF0000B15F00203079318BFCB
:10A7800008F1020815F08403089305D1039BA3EB9D
:10A790000806002E00F38A82DDE91112481C9DF89C
:10A7A0003B6076B1012101320DF13B060728CDE96E
:10A7B0001102C9E9006100F35882014609F1080954
:10A7C0000130079BD3B102230232C9F804300728B5
:10A7D0000FABCDE91102C9F8003040F36282002AC4
:10A7E00000F027830299069810AAFFF7CBFD0028F6
:10A7F00097D1DDE911120DF14C09481C089B802B03
:10A8000000F07181019BABEB0306002E00F3CF81BA
:10A81000019B07281A44CDE91102C9F80040C9F884
:10A82000043040F35D81002A00F09382029906987B
:10A8300010AAFFF7A7FD00287FF473AF129A0DF15D
:10A840004C09680705D5039BA3EB0804002C00F313
:10A850008A82DDE903134145ACBF5B18434404938E
:10A86000002A40F0F38100230DF14C09119308E612
:10A87000029B9B899A053FF55AAF029CA06DFEF79B
:10A880006BF9A38953E715F0100340F0188315F016
:10A89000400200F01083059E984656F8043B05964A
:10A8A0009EB2F7E656F8043BE806059600F11083E1
:10A8B000690640F10A8343F3C0381EB243468FE66F
:10A8C0004FF00003059E8DF83B3056F8044B002CEA
:10A8D00000F0CF83BBF1FF3F00F041835A460021D7
:10A8E0002046FEF76DFC002800F02284031B4FF089
:10A8F000000B059601938DE64FF000034FF0010821
:10A90000059E8DF83B3056F8043B23AC8DF88C3017
:10A910000596CDF804802DE7FDF756F985E5039BF4
:10A920005B4203933B7845F00405CAE53B786C2B0A
:10A9300003BF7B7845F02005013745F01005C0E5E1
:10A940003B78682B03BF7B7845F40075013745F0F1
:10A950004005B6E545F0100A1AF0200800F07E82A6
:10A96000059E0123073626F007063246D6F80480F6
:10A9700052F8086B059290E63B788DF83B80A0E595
:10A9800030228DF83C207822059B8DF83D2053F82D
:10A99000046BBE4A05934FF00008022345F0020AFB
:10A9A00009927AE6AE0600F1A482EC0600F1598322
:10A9B000680600F1B083A90540F15383059E049A0F
:10A9C00056F8043B1A7005965BE5069C2046FEF798
:10A9D000B9F8436818460B93F9F7AEF903462046D9
:10A9E0000C931C46FEF7AEF883680A93002C3FF4E4
:10A9F000E2AD0A9B002B3FF4DEAD0A9B1B78002BD7
:10AA00003FF4D9AD3B7845F480655AE53B7845F095
:10AA1000010556E59DF83B30002B7FF4CCAD20239B
:10AA20008DF83B303B784CE53B7845F0800548E5B8
:10AA3000394611F8013B2A2B00F0A683A3F130021E
:10AA4000092A0F464FF0000B3FF63CAD17F8013BCB
:10AA50000BEB8B0B02EB4B0BA3F13002092AF5D960
:10AA600030E5AA46012B3FF4C8AD022B3CAC12D115
:10AA7000099A06F00F03D35C360946EA08764FEAD6
:10AA8000181804F8013D56EA0803F2D13CAB1B1B31
:10AA900055460193BEE506F00703F60846EA4876F8
:10AAA0004FEAD808303356EA0801224604F8013D3F
:10AAB000F1D11AF0010FE9D0302BE7D03023023A60
:10AAC00004F8013C3CAB9B1A554614460193A1E5A2
:10AAD0000123019A13941193149212920DF14C09CF
:10AAE00009F10809ADE6039BA3EB0806002E7FF7EA
:10AAF00089AE102EDFF898A138DD5346CC46BA4611
:10AB0000C1460794A8461F46069C029D07E001F136
:10AB1000020E01460CF1080C103E102E1EDD102313
:10AB2000481C10320728CDE91102CCF80070CCF88F
:10AB30000430ECDD002A00F092802946204610AA5D
:10AB4000FFF720FC00287FF4ECADDDE91112103E88
:10AB5000102E0DF14C0C01F1010EE0DC3B46454698
:10AB60005746C8467046E1469A46079C3244072835
:10AB7000CDE91102C9F800A0C9F8046040F396813C
:10AB8000002A00F09A820299069810AAFFF7FAFBB1
:10AB900000287FF4C6ADDDE91112019B0DF14C09CF
:10ABA000ABEB0306002E01F101007FF731AE102E52
:10ABB00040F36B82DFF8D8A0CC465346C146BA4674
:10ABC000A84607944FF0100B1F46069C029D07E015
:10ABD00001F1020E01460CF1080C103E102E19DD99
:10ABE000481C10320728CCE9007BCDE91102EFDDCB
:10ABF00032B32946204610AAFFF7C4FB00287FF491
:10AC000090ADDDE91112103E102E0DF14C0C01F14A
:10AC1000010EE5DC3B4645465746C8467046E146D0
:10AC20009A46079C32440728CDE91102C9F800A0D2
:10AC3000C9F8046000F3E98009F108090130E7E58B
:10AC40004FF0010E11460DF14C0CC6E70299069823
:10AC500010AAFFF797FB00283FF405AE61E54FF01F
:10AC6000010E11460DF14C0C56E7002A00F0DE8073
:10AC70000299069810AAFFF785FB00287FF451ADD2
:10AC8000DDE911120DF14C09481C9AE5D0B8000815
:10AC9000FCBC0008022201200FAB13930DF14C09FC
:10ACA0001492014609F10809481CA7E5102E40F34B
:10ACB0004582DDE91132DFF8F0A219465346CC4651
:10ACC000BA46C1460D94A8461F46069C029D07E061
:10ACD00001F1020E01460CF1080C103E102E1CDD95
:10ACE0001023481C10320728CDE91102CCF800705F
:10ACF000CCF80430ECDD32B32946204610AAFFF729
:10AD000041FB00287FF40DADDDE91112103E102E3D
:10AD10000DF14C0C01F1010EE2DC3B464546574675
:10AD2000C8467146E1469A460D9C32440729CDE952
:10AD30001112C9F800A0C9F8046000F3A78009F156
:10AD40000809481C2BE511464FF0010E0DF14C0C83
:10AD5000C3E76C07119250D5039BA3EB0804002CAA
:10AD60004BDD0DF14C09102C40F3F881DFF838A2CF
:10AD7000102553461199BA46069E1F46DDF808B0C5
:10AD800006E0881C194609F10809103C102C19DD51
:10AD90004B1C1032072BC9E90075CDE91132F0DDEB
:10ADA00032B35946304610AAFFF7ECFA00287FF478
:10ADB000B8ACDDE91112103C102C0DF14C0901F179
:10ADC0000100E5DC3B4657469A4622440728C9E97C
:10ADD00000A4CDE911027FF73CAD72B1029906984B
:10ADE00010AAFFF7CFFA00287FF49BAC129A30E547
:10ADF000012011460DF14C09C7E7DDE90323424567
:10AE0000ACBF9B18434404932DE5002A3FF460AE89
:10AE10000299069810AAFFF7B5FA00287FF481ACD2
:10AE20001198129A0DF14C090130F1E4079B002BA7
:10AE300069D1012011460DF14C09DFE411920DF1A9
:10AE40004C0958E4BBF1000F7FF4DCAB55464FF0E2
:10AE5000000B3CACCDF804B0FFF7DCBB1AF01003DC
:10AE600040D11AF0400239D0059E984656F8042B7E
:10AE70000123059696B210E42D2376428DF83B30DF
:10AE8000AA464FF0010368EB48080AE4002A6FD095
:10AE90000299069810AAFFF775FA00287FF441ACD2
:10AEA0000DF14C0978E43CACFFF7B4BB014609F165
:10AEB00008090130A6E415F4007840F01D81059BD7
:10AEC00053F8046B0593FFF7E5BBAA0500F10E816B
:10AED0004FEAE3781E464346FFF782BB1AF4007838
:10AEE00040F0FB80059A012352F8046B0592FFF7AE
:10AEF000D4BBDDE9041656F8042BCB17C2E90013C6
:10AF00000596FFF7BEBA02220FAB13930DF14C0961
:10AF10001492C7E6254A099215F0200836D0059EFE
:10AF2000073626F007063246D6F8048052F8086B3A
:10AF30000592EA0709D556EA080206D08DF83D3099
:10AF4000302345F002058DF83C30022325F4806A59
:10AF5000FFF7A3BBAA46FFE4154A0992DCE72046A7
:10AF60000596F8F7E9FE4FF0000B0190FFF752BB92
:10AF70009DF83B10002900F0A68001200DF13B0256
:10AF800013920DF14C090246149016E415F01002CC
:10AF900014D115F040010DD0059E904656F8042BB3
:10AFA000059696B2C5E700BFECBC0008E4B80008FF
:10AFB000D0B8000815F4007840F0A680059A52F841
:10AFC000046B0592B5E700230AF48062CDF804B063
:10AFD000CDF81CA0BB46CDF820909A461746DDF868
:10AFE00028903CAD0CE00023304641460A22F6F79B
:10AFF00039F90A2E78F100031BD306468846254608
:10B00000304641460A220023F6F72CF930326C1EF6
:10B010000AF1010A05F8012C002FE4D099F800305C
:10B020005345E0D1BAF1FF0FDDD00A2E78F10003CD
:10B030002ED2DDF81CA03CAB1B1B5F46CDF8289040
:10B04000DDF804B05546DDF820900193FFF7E2BA31
:10B05000AA46FFF7D2BA012BAA467FF406ADFFF746
:10B06000D1BA059E049A56F8043B1A600596FFF77C
:10B0700008BABBF1060FD84628BF4FF00608474C68
:10B08000CDF804800596FFF775BBDFF814A1C9E57C
:10B090000C9B0B99E41A1A462046FFF73FF999F8E2
:10B0A00001300BB109F10109304641460A22002363
:10B0B0004FF0000AF6F7D6F89FE7012011460DF190
:10B0C0004C09FFF79FBB079B002B7FF4E3AD1146B4
:10B0D00001200DF14C09FFF795BB059E904656F8EF
:10B0E000042B01230596D6B2FFF7D7BA43F3C01855
:10B0F0005EB24346FFF774BA059E904656F8043B8D
:10B100000596DEB2FFF7C6BA059E884656F8042BB0
:10B110000596D6B20DE7059E049A56F8043B1A80B0
:10B120000596FFF7AEB9886DFDF716FDFFF799BAE2
:10B13000CDF804B005968346FFF76CBA1199129AC0
:10B14000DFF860A00131F0E50299069810AAFFF738
:10B1500019F900283FF4E3AAFFF7E3BA1198DFF8E2
:10B1600044A0013031E6029B5B6EDB0707D4029BF3
:10B170009B899F0503D4029B986DFDF7EDFC4FF072
:10B18000FF330493FFF7D6BA059A7B780F4652F83F
:10B19000041B059241EAE17BFFF793B9F8B8000878
:10B1A000FCBC0008ECBC0008F0B54FF4806C154600
:10B1B000002406461F46ADF26C4D1AAB0093049373
:10B1C0008B8916A823F00203ADF80C304B6E069461
:10B1D0001993CB890C46ADF80E30CB69CDF808C079
:10B1E00007934B6ACDF814C00993FDF7AFFC2A46CC
:10B1F0003B4669463046FFF70BF9051E07DB6946FB
:10B200003046FCF7ADFC002818BF4FF0FF35BDF805
:10B210000C305B0603D5A38943F04003A381169845
:10B22000FDF796FC28460DF26C4DF0BD034649B182
:10B23000FF2A02D801200A7070478A224FF0FF309F
:10B240001A6070470846704738B50C461146002210
:10B250008446074D20462A601A466446F8F746F9A8
:10B26000431C00D038BD2B68002BFBD0236038BDB9
:10B27000B00B00202DE9F047DFF87CA00646DAF895
:10B28000000098460F469146FDF764FC1B4B1B6877
:10B29000D3F8484124B365681F2D26DC5EB96B1CCA
:10B2A0000235DAF80000636044F82570FDF754FCBD
:10B2B0000020BDE8F087012304EB8501C1F88890E8
:10B2C000D4F88821AB401A43022EC4F88821C1F873
:10B2D0000881E4D1D4F88C211343C4F88C31DEE723
:10B2E00003F5A674C3F84841D5E7DAF80000FDF786
:10B2F00033FC4FF0FF30DCE73804002058B800087A
:10B30000144600B51A460A4B0D461B6885B0DE6828
:10B3100003464CB107490191304607490294009514
:10B3200000F0C2F800F020FA04490C46F3E700BF31
:10B330000C0000200CBD00081CBD000818BD000852
:10B3400038B5A1FB021484BBFDF778FC0546D8B1E3
:10B3500050F8042C22F00302043A242A16D8132AA7
:10B3600019D91B2AC0E900441CD90023242A14BF80
:10B3700000F1100200F11802C0E9024404BF0461A8
:10B380004461C2E900339360284638BD2146F8F78E
:10B3900017FC284638BD024600232846C2E9003380
:10B3A000936038BD00F10802F6E7F8F7DFFB0C23E5
:10B3B00000250360E8E700BF002238B5064D0446CB
:10B3C00008462A60F8F7A0F8431C00D038BD2B6867
:10B3D000002BFBD0236038BDB00B002070B50029D6
:10B3E0004BD006460C4610B1836B002B48D0636EE1
:10B3F000D80734D5B4F90C30002B3ED02146304666
:10B40000FCF71CFBE36A054633B13046E169984717
:10B410000028B8BF4FF0FF35A3891A063BD4216B33
:10B4200041B104F14003994202D03046FCF7C4FC1C
:10B4300000232363616C21B13046FCF7BDFC00237F
:10B440006364FCF747FC0022636EA281DB0727D50B
:10B45000A06DFDF77DFBFCF743FC284670BDA3897A
:10B460009905CBD4A06DFDF775FBB4F90C30002B1A
:10B47000C4D1656E15F0010508D00025284670BDC1
:10B48000FCF7A2FB636ED807B4D4E8E7A06DFDF724
:10B4900063FB284670BD30462169FCF78DFCBEE792
:10B4A000A06DFDF759FBD3E70EB400B5074A82B093
:10B4B00003AB0146106853F8042B0193FEF7A8FF75
:10B4C00002B05DF804EB03B0704700BF0C00002031
:10B4D0002DE9F04383B0074688461446FDF72CFB60
:10B4E000012803D108F1FF33FE2B33D942463846F9
:10B4F00004F15C0301A900F019F9421C06462FD0A3
:10B5000018B39DF8041000250DF1050908E0236823
:10B510005A1C226019700135B54216D219F8011B68
:10B52000A368013B002BA360F1DAA269934201DB1F
:10B530000A29ECD12246384600F0A0F8431CEAD193
:10B540000646304603B0BDE8F0834646304603B0B9
:10B55000BDE8F0835FFA88F106468DF80410D2E763
:10B560003046A38943F04003A38103B0BDE8F083D4
:10B5700030B5536E144613F0010FB2F90C30054686
:10B5800083B09AB201D198051CD5900406D4626E9E
:10B5900043F4005342F40052A381626622462846D7
:10B5A000FFF796FF636E0546DA0702D4A3899B0571
:10B5B00002D5284603B030BDA06DFDF7CDFA284670
:10B5C00003B030BDA06D0191FDF7C4FAB4F90C30A1
:10B5D00001999AB2D9E700BF70B50026074D04461D
:10B5E000084611462E60F7F792FF431C00D070BD4D
:10B5F0002B68002BFBD0236070BD00BFB00B002078
:10B60000002238B5064D044608462A60F7F784FF45
:10B61000431C00D038BD2B68002BFBD0236038BD05
:10B62000B00B002038B50C46114600228446074D69
:10B6300020462A601A466446F7F770FF431C00D084
:10B6400038BD2B68002BFBD0236038BDB00B002029
:10B6500038B50C46114600228446074D20462A6024
:10B660001A466446F7F732FF431C00D038BD2B68FA
:10B67000002BFBD0236038BDB00B0020F8B5064688
:10B680000D46144610B1836B002B43D0B4F90C2047
:10B69000A3691007A36091B21BD52369CBB1EDB2AA
:10B6A00089042F4622D522686169D31A994229DD7F
:10B6B0000133A1680139A160511C216015706269D4
:10B6C0009A422AD0A389DB0701D50A2D25D0384616
:10B6D000F8BD21463046FBF739F920BBB4F90C2000
:10B6E000EDB291B289042F462369DCD442F40052B2
:10B6F000A281626E616922F4005262662268D31AE6
:10B700009942D5DC21463046FCF72AFA58B9012384
:10B710002268CEE7FCF758FAB8E721463046FCF736
:10B720001FFA0028D3D04FF0FF37D0E770B5054699
:10B730001C4684B039B10B4ED6F8E060B047431CCC
:10B7400009D004B070BD0A460649D1F8E06001A9ED
:10B75000B047431CF5D100228A2322602B6004B03D
:10B7600070BD00BF40040020062008B500F004F8BA
:10B770000120F7F7A5FE00BF38B5154B1F281D683F
:10B7800020D8D5F8DC22044662B152F820304BB103
:10B79000012B15D0591C0FD0002542F82050984796
:10B7A000284638BD284600F029F82246014628469A
:10B7B000BDE8384000F00EB8162301202B6038BDDC
:10B7C000002038BD16234FF0FF302B6038BD00BF7E
:10B7D0000C00002070B50026074D044608461146AF
:10B7E0002E60F7F765FE431C00D070BD2B68002B60
:10B7F000FBD0236070BD00BFB00B0020F7F756BE32
:10B80000F8B500BFF8BC08BC9E467047F8B500BF4D
:08B81000F8BC08BC9E4670471D
:10B8180002030405060708090A0B0C0D0E0F101089
:10B8280001020000252E32662C252E32662C252E8C
:10B8380032660A0000000000000000000102030454
:10B848000607080900000000010203044F4B0D0021
:10B85800100000200A0000006E660000696E69741E
:10B8680079000000616E000035000000CEFBFFFF8C
:10B87800CB030000010000000000000034000000BD
:10B88800CEFBFFFFCB03000001000000000000001A
:10B89800BC89D897B2D29C3C33A7A8D523F649399E
:10B8A8003DA7F444FD0FA5329D978CCF08BA5B25C0
:10B8B800436FAC6428066811494E4600696E6600FD
:10B8C8004E414E006E616E003031323334353637BA
:10B8D80038396162636465660000000030313233D4
:10B8E8003435363738394142434445460000000074
:10B8F800286E756C6C290000300000002020202084
:10B9080020202020202020202020202030303030EF
:10B918003030303030303030303030304E614E00E2
:10B92800496E66696E6974790000000042616C6C4A
:10B938006F63207375636365656465640000000068
:10B948002F6D6E742F776F726B73706163652F77CD
:10B958006F726B73706163652F4743432D31302DD0
:10B96800706970656C696E652F6A656E6B696E7358
:10B978002D4743432D31302D706970656C696E65B4
:10B988002D3333385F32303231313031385F313630
:10B9980033343531363230332F7372632F6E657717
:10B9A8006C69622F6E65776C69622F6C6962632FB0
:10B9B8007374646C69622F64746F612E6300000095
:10B9C8002F6D6E742F776F726B73706163652F774D
:10B9D8006F726B73706163652F4743432D31302D50
:10B9E800706970656C696E652F6A656E6B696E73D8
:10B9F8002D4743432D31302D706970656C696E6534
:10BA08002D3333385F32303231313031385F3136AF
:10BA180033343531363230332F7372632F6E657796
:10BA28006C69622F6E65776C69622F6C6962632F2F
:10BA38007374646C69622F6764746F612D676574D1
:10BA48006865782E63000000000000000000000018
:10BA580000000000000000000000000000000000DE
:10BA680000000000000000000000000000000000CE
:10BA78000000000000000000101112131415161722
:10BA88001819000000000000001A1B1C1D1E1F00D2
:10BA9800000000000000000000000000000000009E
:10BAA8000000000000000000001A1B1C1D1E1F00E3
:10BAB800000000000000000000000000000000007E
:10BAC800000000000000000000000000000000006E
:10BAD800000000000000000000000000000000005E
:10BAE800000000000000000000000000000000004E
:10BAF800000000000000000000000000000000003E
:10BB0800000000000000000000000000000000002D
:10BB1800000000000000000000000000000000001D
:10BB2800000000000000000000000000000000000D
:10BB380000000000000000000000000000000000FD
:10BB480000000000000000002E00000050BB0008AC
:10BB580018BD00083C04002043000000504F534922
:10BB6800580000002F6D6E742F776F726B737061C1
:10BB780063652F776F726B73706163652F474343FB
:10BB88002D31302D706970656C696E652F6A656E30
:10BB98006B696E732D4743432D31302D7069706585
:10BBA8006C696E652D3333385F3230323131303164
:10BBB800385F313633343531363230332F73726370
:10BBC8002F6E65776C69622F6E65776C69622F6C72
:10BBD8006962632F7374646C69622F6D7072656338
:10BBE8002E630000000000000080E03779C3414365
:10BBF800176E05B5B5B89346F5F93FE9034F384DCB
:10BC0800321D30F94877825A3CBF737FDD4F157576
:10BC1800000000000000F03F000000000000244089
:10BC280000000000000059400000000000408F4064
:10BC3800000000000088C34000000000006AF840CF
:10BC48000000000080842E4100000000D0126341F3
:10BC58000000000084D797410000000065CDCD4169
:10BC6800000000205FA00242000000E8764837424A
:10BC7800000000A2941A6D42000040E59C30A242E8
:10BC88000000901EC4BCD64200003426F56B0C435D
:10BC98000080E03779C3414300A0D8855734764304
:10BCA80000C84E676DC1AB43003D9160E458E14365
:10BCB800408CB5781DAF154450EFE2D6E41A4B44DA
:10BCC80092D54D06CFF08044F64AE1C7022DB5441F
:10BCD800B49DD9794378EA440500000019000000B2
:10BCE8007D0000002020202020202020202020204F
:10BCF800202020203030303030303030303030307C
:10BD0800303030302C2066756E6374696F6E3A205F
:10BD180000000000617373657274696F6E202225DC
:10BD28007322206661696C65643A2066696C6520D7
:10BD3800222573222C206C696E65202564257325C5
:10BD4800730A0000002020202020202020202828FE
:10BD580028282820202020202020202020202020C3
:10BD68002020202020881010101010101010101003
:10BD78001010101010040404040404040404041033
:10BD880010101010101041414141414101010101C1
:10BD9800010101010101010101010101010101018B
:10BDA8001010101010104242424242420202020297
:10BDB800020202020202020202020202020202025B
:10BDC800101010102000000000000000000000000B
:10BDD800000000000000000000000000000000005B
:10BDE800000000000000000000000000000000004B
:10BDF800000000000000000000000000000000003B
:10BE0800000000000000000000000000000000002A
:10BE1800000000000000000000000000000000001A
:10BE2800000000000000000000000000000000000A
:10BE380000000000000000000000000000000000FA
:08BE48000000000000000000F2
:08BE5000B454FF7F0100000063
:08BE5800216A00083501000811
:04BE600011010008C4
:10BE640001000000100000000024F4001000002075
:10BE740000000000FC02002064030020CC0300202A
:10BE840000000000000000000000000000000000AE
:10BE9400000000000000000000000000000000009E
:10BEA400000000000000000000000000000000008E
:10BEB400000000000000000000000000000000007E
:10BEC400000000000000000000000000000000006E
:10BED400000000000000000000000000000000005E
:10BEE400000000000000000000000000000000004E
:10BEF400000000000000000000000000000000003E
:10BF0400000000000000000000000000000000002D
:10BF1400000000000000000001000000000000001C
:10BF24000E33CDAB34126DE6ECDE05000B000000E1
:10BF340000000000000000000000000000000000FD
:10BF440000000000000000000000000000000000ED
:10BF540000000000000000000000000000000000DD
:10BF640000000000000000000000000000000000CD
:10C2940000000000000000006C0B0020FF00000004
:10C2A4004300000000000000000000000000000047
:10C2B400000000000000000000000000000000007A
:10C2C4004300000000000000000000000000000027
:10C2D400000000000000000000000000000000005A
:10C2E4004300000000000000000000000000000007
:10C2F400000000000000000000000000000000003A
:10C3040043000000000000000000000000000000E6
:10C314000000000000000000000000000000000019
:10C3240043000000000000000000000000000000C6
:10C3340000000000000000000000000000000000F9
:10C3440043000000000000000000000000000000A6
:10C3540000000000000000000000000000000000D9
:10C364004300000000000000000000000000000086
:10C3740000000000000000000000000000000000B9
:10C384002DB2000895910008000000004CBD000883
:10C3940050BB000818BD000818BD000818BD0008EF
:10C3A40018BD000818BD000818BD000818BD000815
:10C3B40018BD000818BD0008FFFFFFFFFFFFFFFFC7
:10C3C400FFFFFFFFFFFF0000010041534349490005
:10C3D4000000000000000000000000000000000059
:10C3E40000000000000000000000415343494900E0
:10C3F4000000000000000000000000000000000039
:10C404000000000000000000000000000000000028
:10C4140000000000AC050020AC050020B40500209D
:10C42400B4050020BC050020BC050020C405002084
:10C43400C4050020CC050020CC050020D405002034
:10C44400D4050020DC050020DC050020E4050020E4
:10C45400E4050020EC050020EC050020F405002094
:10C46400F4050020FC050020FC0500200406002043
:10C47400040600200C0600200C06002014060020F0
:10C48400140600201C0600201C06002024060020A0
:10C49400240600202C0600202C0600203406002050
:10C4A400340600203C0600203C0600204406002000
:10C4B400440600204C0600204C06002054060020B0
:10C4C400540600205C0600205C0600206406002060
:10C4D400640600206C0600206C0600207406002010
:10C4E400740600207C0600207C06002084060020C0
:10C4F400840600208C0600208C0600209406002070
:10C50400940600209C0600209C060020A40600201F
:10C51400A4060020AC060020AC060020B4060020CF
:10C52400B4060020BC060020BC060020C40600207F
:10C53400C4060020CC060020CC060020D40600202F
:10C54400D4060020DC060020DC060020E4060020DF
:10C55400E4060020EC060020EC060020F40600208F
:10C56400F4060020FC060020FC060020040700203E
:10C57400040700200C0700200C07002014070020EB
:10C58400140700201C0700201C070020240700209B
:10C59400240700202C0700202C070020340700204B
:10C5A400340700203C0700203C07002044070020FB
:10C5B400440700204C0700204C07002054070020AB
:10C5C400540700205C0700205C070020640700205B
:10C5D400640700206C0700206C070020740700200B
:10C5E400740700207C0700207C07002084070020BB
:10C5F400840700208C0700208C070020940700206B
:10C60400940700209C0700209C070020A40700201A
:10C61400A4070020AC070020AC070020B4070020CA
:10C62400B4070020BC070020BC070020C40700207A
:10C63400C4070020CC070020CC070020D40700202A
:10C64400D4070020DC070020DC070020E4070020DA
:10C65400E4070020EC070020EC070020F40700208A
:10C66400F4070020FC070020FC0700200408002039
:10C67400040800200C0800200C08002014080020E6
:10C68400140800201C0800201C0800202408002096
:10C69400240800202C0800202C0800203408002046
:10C6A400340800203C0800203C08002044080020F6
:10C6B400440800204C0800204C08002054080020A6
:10C6C400540800205C0800205C0800206408002056
:10C6D400640800206C0800206C0800207408002006
:10C6E400740800207C0800207C08002084080020B6
:10C6F400840800208C0800208C0800209408002066
:10C70400940800209C0800209C080020A408002015
:10C71400A4080020AC080020AC080020B4080020C5
:10C72400B4080020BC080020BC080020C408002075
:10C73400C4080020CC080020CC080020D408002025
:10C74400D4080020DC080020DC080020E4080020D5
:10C75400E4080020EC080020EC080020F408002085
:10C76400F4080020FC080020FC0800200409002034
:10C77400040900200C0900200C09002014090020E1
:10C78400140900201C0900201C0900202409002091
:10C79400240900202C0900202C0900203409002041
:10C7A400340900203C0900203C09002044090020F1
:10C7B400440900204C0900204C09002054090020A1
:10C7C400540900205C0900205C0900206409002051
:10C7D400640900206C0900206C0900207409002001
:10C7E400740900207C0900207C09002084090020B1
:10C7F400840900208C0900208C0900209409002061
:10C80400940900209C0900209C090020A409002010
:0CC81400A4090020FFFFFFFF000002004D
:040000050800397145
:00000001FF
